{
  "contractName": "BlessedCoinContract",
  "abi": [
    {
      "inputs": [],
      "stateMutability": "nonpayable",
      "type": "constructor"
    },
    {
      "anonymous": false,
      "inputs": [
        {
          "indexed": true,
          "internalType": "address",
          "name": "owner",
          "type": "address"
        },
        {
          "indexed": true,
          "internalType": "address",
          "name": "approved",
          "type": "address"
        },
        {
          "indexed": true,
          "internalType": "uint256",
          "name": "tokenId",
          "type": "uint256"
        }
      ],
      "name": "Approval",
      "type": "event"
    },
    {
      "anonymous": false,
      "inputs": [
        {
          "indexed": true,
          "internalType": "address",
          "name": "owner",
          "type": "address"
        },
        {
          "indexed": true,
          "internalType": "address",
          "name": "operator",
          "type": "address"
        },
        {
          "indexed": false,
          "internalType": "bool",
          "name": "approved",
          "type": "bool"
        }
      ],
      "name": "ApprovalForAll",
      "type": "event"
    },
    {
      "anonymous": false,
      "inputs": [
        {
          "indexed": true,
          "internalType": "address",
          "name": "from",
          "type": "address"
        },
        {
          "indexed": true,
          "internalType": "address",
          "name": "to",
          "type": "address"
        },
        {
          "indexed": true,
          "internalType": "uint256",
          "name": "tokenId",
          "type": "uint256"
        }
      ],
      "name": "Transfer",
      "type": "event"
    },
    {
      "inputs": [
        {
          "internalType": "address",
          "name": "to",
          "type": "address"
        },
        {
          "internalType": "uint256",
          "name": "tokenId",
          "type": "uint256"
        }
      ],
      "name": "approve",
      "outputs": [],
      "stateMutability": "nonpayable",
      "type": "function"
    },
    {
      "inputs": [
        {
          "internalType": "address",
          "name": "owner",
          "type": "address"
        }
      ],
      "name": "balanceOf",
      "outputs": [
        {
          "internalType": "uint256",
          "name": "",
          "type": "uint256"
        }
      ],
      "stateMutability": "view",
      "type": "function",
      "constant": true
    },
    {
      "inputs": [
        {
          "internalType": "uint256",
          "name": "tokenId",
          "type": "uint256"
        }
      ],
      "name": "getApproved",
      "outputs": [
        {
          "internalType": "address",
          "name": "",
          "type": "address"
        }
      ],
      "stateMutability": "view",
      "type": "function",
      "constant": true
    },
    {
      "inputs": [
        {
          "internalType": "address",
          "name": "owner",
          "type": "address"
        },
        {
          "internalType": "address",
          "name": "operator",
          "type": "address"
        }
      ],
      "name": "isApprovedForAll",
      "outputs": [
        {
          "internalType": "bool",
          "name": "",
          "type": "bool"
        }
      ],
      "stateMutability": "view",
      "type": "function",
      "constant": true
    },
    {
      "inputs": [],
      "name": "name",
      "outputs": [
        {
          "internalType": "string",
          "name": "",
          "type": "string"
        }
      ],
      "stateMutability": "view",
      "type": "function",
      "constant": true
    },
    {
      "inputs": [
        {
          "internalType": "uint256",
          "name": "tokenId",
          "type": "uint256"
        }
      ],
      "name": "ownerOf",
      "outputs": [
        {
          "internalType": "address",
          "name": "",
          "type": "address"
        }
      ],
      "stateMutability": "view",
      "type": "function",
      "constant": true
    },
    {
      "inputs": [
        {
          "internalType": "address",
          "name": "from",
          "type": "address"
        },
        {
          "internalType": "address",
          "name": "to",
          "type": "address"
        },
        {
          "internalType": "uint256",
          "name": "tokenId",
          "type": "uint256"
        }
      ],
      "name": "safeTransferFrom",
      "outputs": [],
      "stateMutability": "nonpayable",
      "type": "function"
    },
    {
      "inputs": [
        {
          "internalType": "address",
          "name": "from",
          "type": "address"
        },
        {
          "internalType": "address",
          "name": "to",
          "type": "address"
        },
        {
          "internalType": "uint256",
          "name": "tokenId",
          "type": "uint256"
        },
        {
          "internalType": "bytes",
          "name": "_data",
          "type": "bytes"
        }
      ],
      "name": "safeTransferFrom",
      "outputs": [],
      "stateMutability": "nonpayable",
      "type": "function"
    },
    {
      "inputs": [
        {
          "internalType": "address",
          "name": "operator",
          "type": "address"
        },
        {
          "internalType": "bool",
          "name": "approved",
          "type": "bool"
        }
      ],
      "name": "setApprovalForAll",
      "outputs": [],
      "stateMutability": "nonpayable",
      "type": "function"
    },
    {
      "inputs": [
        {
          "internalType": "bytes4",
          "name": "interfaceId",
          "type": "bytes4"
        }
      ],
      "name": "supportsInterface",
      "outputs": [
        {
          "internalType": "bool",
          "name": "",
          "type": "bool"
        }
      ],
      "stateMutability": "view",
      "type": "function",
      "constant": true
    },
    {
      "inputs": [],
      "name": "symbol",
      "outputs": [
        {
          "internalType": "string",
          "name": "",
          "type": "string"
        }
      ],
      "stateMutability": "view",
      "type": "function",
      "constant": true
    },
    {
      "inputs": [
        {
          "internalType": "uint256",
          "name": "tokenId",
          "type": "uint256"
        }
      ],
      "name": "tokenURI",
      "outputs": [
        {
          "internalType": "string",
          "name": "",
          "type": "string"
        }
      ],
      "stateMutability": "view",
      "type": "function",
      "constant": true
    },
    {
      "inputs": [],
      "name": "getLatestID",
      "outputs": [
        {
          "internalType": "uint256",
          "name": "",
          "type": "uint256"
        }
      ],
      "stateMutability": "view",
      "type": "function",
      "constant": true
    },
    {
      "inputs": [
        {
          "internalType": "address",
          "name": "from",
          "type": "address"
        },
        {
          "internalType": "address",
          "name": "to",
          "type": "address"
        },
        {
          "internalType": "uint256",
          "name": "tokenId",
          "type": "uint256"
        },
        {
          "internalType": "string",
          "name": "newURI",
          "type": "string"
        }
      ],
      "name": "transferFrom",
      "outputs": [],
      "stateMutability": "nonpayable",
      "type": "function"
    },
    {
      "inputs": [
        {
          "internalType": "address",
          "name": "from",
          "type": "address"
        },
        {
          "internalType": "address",
          "name": "to",
          "type": "address"
        },
        {
          "internalType": "uint256",
          "name": "tokenId",
          "type": "uint256"
        }
      ],
      "name": "transferFrom",
      "outputs": [],
      "stateMutability": "nonpayable",
      "type": "function"
    },
    {
      "inputs": [],
      "name": "validateLastTransaction",
      "outputs": [
        {
          "internalType": "bool",
          "name": "",
          "type": "bool"
        }
      ],
      "stateMutability": "view",
      "type": "function",
      "constant": true
    },
    {
      "inputs": [
        {
          "internalType": "address",
          "name": "recipient",
          "type": "address"
        },
        {
          "internalType": "string",
          "name": "metadataURI",
          "type": "string"
        }
      ],
      "name": "awardItem",
      "outputs": [
        {
          "internalType": "uint256",
          "name": "",
          "type": "uint256"
        }
      ],
      "stateMutability": "nonpayable",
      "type": "function"
    }
  ],
  "bytecode": "0x608060405260006008553480156200001657600080fd5b506040518060400160405280600b81526020017f426c6573736564436f696e0000000000000000000000000000000000000000008152506040518060400160405280600781526020017f424c45535345440000000000000000000000000000000000000000000000000081525081600090805190602001906200009b929190620000bd565b508060019080519060200190620000b4929190620000bd565b505050620001d2565b828054620000cb906200016d565b90600052602060002090601f016020900481019282620000ef57600085556200013b565b82601f106200010a57805160ff19168380011785556200013b565b828001600101855582156200013b579182015b828111156200013a5782518255916020019190600101906200011d565b5b5090506200014a91906200014e565b5090565b5b80821115620001695760008160009055506001016200014f565b5090565b600060028204905060018216806200018657607f821691505b602082108114156200019d576200019c620001a3565b5b50919050565b7f4e487b7100000000000000000000000000000000000000000000000000000000600052602260045260246000fd5b6130aa80620001e26000396000f3fe608060405234801561001057600080fd5b5060043610610128576000357c0100000000000000000000000000000000000000000000000000000000900480636352211e116100bf578063b88d4fde1161008e578063b88d4fde146102d3578063c87b56dd146102ef578063cf3783431461031f578063e985e9c51461034f578063fec628041461037f57610128565b80636352211e1461023957806370a082311461026957806395d89b4114610299578063a22cb465146102b757610128565b806312a2fa7e116100fb57806312a2fa7e146101c75780631af716ba146101e557806323b872dd1461020157806342842e0e1461021d57610128565b806301ffc9a71461012d57806306fdde031461015d578063081812fc1461017b578063095ea7b3146101ab575b600080fd5b61014760048036038101906101429190612158565b61039d565b60405161015491906129c2565b60405180910390f35b61016561047f565b60405161017291906129dd565b60405180910390f35b610195600480360381019061019091906121aa565b610511565b6040516101a2919061295b565b60405180910390f35b6101c560048036038101906101c0919061211c565b610596565b005b6101cf6106ae565b6040516101dc91906129c2565b60405180910390f35b6101ff60048036038101906101fa9190612011565b6106df565b005b61021b60048036038101906102169190611f47565b6106fa565b005b61023760048036038101906102329190611f47565b61075a565b005b610253600480360381019061024e91906121aa565b61077a565b604051610260919061295b565b60405180910390f35b610283600480360381019061027e9190611ee2565b61082c565b6040516102909190612c3f565b60405180910390f35b6102a16108e4565b6040516102ae91906129dd565b60405180910390f35b6102d160048036038101906102cc919061208c565b610976565b005b6102ed60048036038101906102e89190611f96565b610af7565b005b610309600480360381019061030491906121aa565b610b59565b60405161031691906129dd565b60405180910390f35b610339600480360381019061033491906120c8565b610cab565b6040516103469190612c3f565b60405180910390f35b61036960048036038101906103649190611f0b565b610d2e565b60405161037691906129c2565b60405180910390f35b610387610dc2565b6040516103949190612c3f565b60405180910390f35b60007f80ac58cd000000000000000000000000000000000000000000000000000000007bffffffffffffffffffffffffffffffffffffffffffffffffffffffff1916827bffffffffffffffffffffffffffffffffffffffffffffffffffffffff1916148061046857507f5b5e139f000000000000000000000000000000000000000000000000000000007bffffffffffffffffffffffffffffffffffffffffffffffffffffffff1916827bffffffffffffffffffffffffffffffffffffffffffffffffffffffff1916145b80610478575061047782610dd8565b5b9050919050565b60606000805461048e90612e9f565b80601f01602080910402602001604051908101604052809291908181526020018280546104ba90612e9f565b80156105075780601f106104dc57610100808354040283529160200191610507565b820191906000526020600020905b8154815290600101906020018083116104ea57829003601f168201915b5050505050905090565b600061051c82610e42565b61055b576040517f08c379a000000000000000000000000000000000000000000000000000000000815260040161055290612b7f565b60405180910390fd5b6004600083815260200190815260200160002060009054906101000a900473ffffffffffffffffffffffffffffffffffffffff169050919050565b60006105a18261077a565b90508073ffffffffffffffffffffffffffffffffffffffff168373ffffffffffffffffffffffffffffffffffffffff161415610612576040517f08c379a000000000000000000000000000000000000000000000000000000000815260040161060990612bdf565b60405180910390fd5b8073ffffffffffffffffffffffffffffffffffffffff16610631610eae565b73ffffffffffffffffffffffffffffffffffffffff161480610660575061065f8161065a610eae565b610d2e565b5b61069f576040517f08c379a000000000000000000000000000000000000000000000000000000000815260040161069690612abf565b60405180910390fd5b6106a98383610eb6565b505050565b600080600854426106bf9190612db5565b9050620151808110156106d65760019150506106dc565b60009150505b90565b6106e98282610f6f565b6106f48484846106fa565b50505050565b61070b610705610eae565b82610fe3565b61074a576040517f08c379a000000000000000000000000000000000000000000000000000000000815260040161074190612c1f565b60405180910390fd5b6107558383836110c1565b505050565b61077583838360405180602001604052806000815250610af7565b505050565b6000806002600084815260200190815260200160002060009054906101000a900473ffffffffffffffffffffffffffffffffffffffff169050600073ffffffffffffffffffffffffffffffffffffffff168173ffffffffffffffffffffffffffffffffffffffff161415610823576040517f08c379a000000000000000000000000000000000000000000000000000000000815260040161081a90612aff565b60405180910390fd5b80915050919050565b60008073ffffffffffffffffffffffffffffffffffffffff168273ffffffffffffffffffffffffffffffffffffffff16141561089d576040517f08c379a000000000000000000000000000000000000000000000000000000000815260040161089490612adf565b60405180910390fd5b600360008373ffffffffffffffffffffffffffffffffffffffff1673ffffffffffffffffffffffffffffffffffffffff168152602001908152602001600020549050919050565b6060600180546108f390612e9f565b80601f016020809104026020016040519081016040528092919081815260200182805461091f90612e9f565b801561096c5780601f106109415761010080835404028352916020019161096c565b820191906000526020600020905b81548152906001019060200180831161094f57829003601f168201915b5050505050905090565b61097e610eae565b73ffffffffffffffffffffffffffffffffffffffff168273ffffffffffffffffffffffffffffffffffffffff1614156109ec576040517f08c379a00000000000000000000000000000000000000000000000000000000081526004016109e390612a5f565b60405180910390fd5b80600560006109f9610eae565b73ffffffffffffffffffffffffffffffffffffffff1673ffffffffffffffffffffffffffffffffffffffff16815260200190815260200160002060008473ffffffffffffffffffffffffffffffffffffffff1673ffffffffffffffffffffffffffffffffffffffff16815260200190815260200160002060006101000a81548160ff0219169083151502179055508173ffffffffffffffffffffffffffffffffffffffff16610aa6610eae565b73ffffffffffffffffffffffffffffffffffffffff167f17307eab39ab6107e8899845ad3d59bd9653f200f220920489ca2b5937696c3183604051610aeb91906129c2565b60405180910390a35050565b610b08610b02610eae565b83610fe3565b610b47576040517f08c379a0000000000000000000000000000000000000000000000000000000008152600401610b3e90612c1f565b60405180910390fd5b610b538484848461131d565b50505050565b6060610b6482610e42565b610ba3576040517f08c379a0000000000000000000000000000000000000000000000000000000008152600401610b9a90612b5f565b60405180910390fd5b6000600660008481526020019081526020016000208054610bc390612e9f565b80601f0160208091040260200160405190810160405280929190818152602001828054610bef90612e9f565b8015610c3c5780601f10610c1157610100808354040283529160200191610c3c565b820191906000526020600020905b815481529060010190602001808311610c1f57829003601f168201915b505050505090506000610c4d611379565b9050600081511415610c63578192505050610ca6565b600082511115610c98578082604051602001610c80929190612937565b60405160208183030381529060405292505050610ca6565b610ca184611390565b925050505b919050565b6000610cb56106ae565b50610cc06007611437565b6000610ccc600761144d565b9050610cd8848261145b565b610ce28184610f6f565b610d006001610cf1600761144d565b610cfb9190612db5565b610e42565b15610d2457610d236001610d14600761144d565b610d1e9190612db5565b611629565b5b8091505092915050565b6000600560008473ffffffffffffffffffffffffffffffffffffffff1673ffffffffffffffffffffffffffffffffffffffff16815260200190815260200160002060008373ffffffffffffffffffffffffffffffffffffffff1673ffffffffffffffffffffffffffffffffffffffff16815260200190815260200160002060009054906101000a900460ff16905092915050565b600080610dcf600761144d565b90508091505090565b60007f01ffc9a7000000000000000000000000000000000000000000000000000000007bffffffffffffffffffffffffffffffffffffffffffffffffffffffff1916827bffffffffffffffffffffffffffffffffffffffffffffffffffffffff1916149050919050565b60008073ffffffffffffffffffffffffffffffffffffffff166002600084815260200190815260200160002060009054906101000a900473ffffffffffffffffffffffffffffffffffffffff1673ffffffffffffffffffffffffffffffffffffffff1614159050919050565b600033905090565b816004600083815260200190815260200160002060006101000a81548173ffffffffffffffffffffffffffffffffffffffff021916908373ffffffffffffffffffffffffffffffffffffffff160217905550808273ffffffffffffffffffffffffffffffffffffffff16610f298361077a565b73ffffffffffffffffffffffffffffffffffffffff167f8c5be1e5ebec7d5bd14f71427d1e84f3dd0314c0f7b2291e5b200ac8c7c3b92560405160405180910390a45050565b610f7882610e42565b610fb7576040517f08c379a0000000000000000000000000000000000000000000000000000000008152600401610fae90612b1f565b60405180910390fd5b80600660008481526020019081526020016000209080519060200190610fde929190611cc6565b505050565b6000610fee82610e42565b61102d576040517f08c379a000000000000000000000000000000000000000000000000000000000815260040161102490612a7f565b60405180910390fd5b60006110388361077a565b90508073ffffffffffffffffffffffffffffffffffffffff168473ffffffffffffffffffffffffffffffffffffffff1614806110a757508373ffffffffffffffffffffffffffffffffffffffff1661108f84610511565b73ffffffffffffffffffffffffffffffffffffffff16145b806110b857506110b78185610d2e565b5b91505092915050565b8273ffffffffffffffffffffffffffffffffffffffff166110e18261077a565b73ffffffffffffffffffffffffffffffffffffffff1614611137576040517f08c379a000000000000000000000000000000000000000000000000000000000815260040161112e90612b9f565b60405180910390fd5b600073ffffffffffffffffffffffffffffffffffffffff168273ffffffffffffffffffffffffffffffffffffffff1614156111a7576040517f08c379a000000000000000000000000000000000000000000000000000000000815260040161119e90612a3f565b60405180910390fd5b6111b283838361167c565b6111bd600082610eb6565b6001600360008573ffffffffffffffffffffffffffffffffffffffff1673ffffffffffffffffffffffffffffffffffffffff168152602001908152602001600020600082825461120d9190612db5565b925050819055506001600360008473ffffffffffffffffffffffffffffffffffffffff1673ffffffffffffffffffffffffffffffffffffffff16815260200190815260200160002060008282546112649190612d2e565b92505081905550816002600083815260200190815260200160002060006101000a81548173ffffffffffffffffffffffffffffffffffffffff021916908373ffffffffffffffffffffffffffffffffffffffff160217905550808273ffffffffffffffffffffffffffffffffffffffff168473ffffffffffffffffffffffffffffffffffffffff167fddf252ad1be2c89b69c2b068fc378daa952ba7f163c4a11628f55a4df523b3ef60405160405180910390a4505050565b6113288484846110c1565b61133484848484611797565b611373576040517f08c379a000000000000000000000000000000000000000000000000000000000815260040161136a906129ff565b60405180910390fd5b50505050565b606060405180602001604052806000815250905090565b606061139b82610e42565b6113da576040517f08c379a00000000000000000000000000000000000000000000000000000000081526004016113d190612bbf565b60405180910390fd5b60006113e4611379565b90506000815111611404576040518060200160405280600081525061142f565b8061140e84611966565b60405160200161141f929190612937565b6040516020818303038152906040525b915050919050565b6001816000016000828254019250508190555050565b600081600001549050919050565b600073ffffffffffffffffffffffffffffffffffffffff168273ffffffffffffffffffffffffffffffffffffffff1614156114cb576040517f08c379a00000000000000000000000000000000000000000000000000000000081526004016114c290612b3f565b60405180910390fd5b6114d481610e42565b15611514576040517f08c379a000000000000000000000000000000000000000000000000000000000815260040161150b90612a1f565b60405180910390fd5b6115206000838361167c565b6001600360008473ffffffffffffffffffffffffffffffffffffffff1673ffffffffffffffffffffffffffffffffffffffff16815260200190815260200160002060008282546115709190612d2e565b92505081905550816002600083815260200190815260200160002060006101000a81548173ffffffffffffffffffffffffffffffffffffffff021916908373ffffffffffffffffffffffffffffffffffffffff160217905550808273ffffffffffffffffffffffffffffffffffffffff16600073ffffffffffffffffffffffffffffffffffffffff167fddf252ad1be2c89b69c2b068fc378daa952ba7f163c4a11628f55a4df523b3ef60405160405180910390a45050565b61163281611b32565b600060066000838152602001908152602001600020805461165290612e9f565b905014611679576006600082815260200190815260200160002060006116789190611d4c565b5b50565b611687838383611c43565b600015156116958383611c48565b1515146116d7576040517f08c379a00000000000000000000000000000000000000000000000000000000081526004016116ce90612bff565b60405180910390fd5b60001515600115151461171f576040517f08c379a000000000000000000000000000000000000000000000000000000000815260040161171690612a9f565b60405180910390fd5b60016009600083815260200190815260200160002060010160008473ffffffffffffffffffffffffffffffffffffffff1673ffffffffffffffffffffffffffffffffffffffff16815260200190815260200160002060006101000a81548160ff02191690831515021790555042600881905550505050565b60006117b88473ffffffffffffffffffffffffffffffffffffffff16611cb3565b15611959578373ffffffffffffffffffffffffffffffffffffffff1663150b7a026117e1610eae565b8786866040518563ffffffff167c010000000000000000000000000000000000000000000000000000000002815260040161181f9493929190612976565b602060405180830381600087803b15801561183957600080fd5b505af192505050801561186a57506040513d601f19601f820116820180604052508101906118679190612181565b60015b6118ed573d806000811461189a576040519150601f19603f3d011682016040523d82523d6000602084013e61189f565b606091505b506000815114156118e5576040517f08c379a00000000000000000000000000000000000000000000000000000000081526004016118dc906129ff565b60405180910390fd5b805181602001fd5b63150b7a027c0100000000000000000000000000000000000000000000000000000000027bffffffffffffffffffffffffffffffffffffffffffffffffffffffff1916817bffffffffffffffffffffffffffffffffffffffffffffffffffffffff19161491505061195e565b600190505b949350505050565b606060008214156119ae576040518060400160405280600181526020017f30000000000000000000000000000000000000000000000000000000000000008152509050611b2d565b600082905060005b600082146119e05780806119c990612ed1565b915050600a826119d99190612d84565b91506119b6565b60008167ffffffffffffffff811115611a22577f4e487b7100000000000000000000000000000000000000000000000000000000600052604160045260246000fd5b6040519080825280601f01601f191660200182016040528015611a545781602001600182028036833780820191505090505b5090505b60008514611b2657600182611a6d9190612db5565b9150600a85611a7c9190612f1a565b6030611a889190612d2e565b7f010000000000000000000000000000000000000000000000000000000000000002818381518110611ae3577f4e487b7100000000000000000000000000000000000000000000000000000000600052603260045260246000fd5b60200101907effffffffffffffffffffffffffffffffffffffffffffffffffffffffffffff1916908160001a905350600a85611b1f9190612d84565b9450611a58565b8093505050505b919050565b6000611b3d8261077a565b9050611b4b8160008461167c565b611b56600083610eb6565b6001600360008373ffffffffffffffffffffffffffffffffffffffff1673ffffffffffffffffffffffffffffffffffffffff1681526020019081526020016000206000828254611ba69190612db5565b925050819055506002600083815260200190815260200160002060006101000a81549073ffffffffffffffffffffffffffffffffffffffff021916905581600073ffffffffffffffffffffffffffffffffffffffff168273ffffffffffffffffffffffffffffffffffffffff167fddf252ad1be2c89b69c2b068fc378daa952ba7f163c4a11628f55a4df523b3ef60405160405180910390a45050565b505050565b60006009600083815260200190815260200160002060010160008473ffffffffffffffffffffffffffffffffffffffff1673ffffffffffffffffffffffffffffffffffffffff16815260200190815260200160002060009054906101000a900460ff16905092915050565b600080823b905060008111915050919050565b828054611cd290612e9f565b90600052602060002090601f016020900481019282611cf45760008555611d3b565b82601f10611d0d57805160ff1916838001178555611d3b565b82800160010185558215611d3b579182015b82811115611d3a578251825591602001919060010190611d1f565b5b509050611d489190611d8c565b5090565b508054611d5890612e9f565b6000825580601f10611d6a5750611d89565b601f016020900490600052602060002090810190611d889190611d8c565b5b50565b5b80821115611da5576000816000905550600101611d8d565b5090565b6000611dbc611db784612c8b565b612c5a565b905082815260208101848484011115611dd457600080fd5b611ddf848285612e5d565b509392505050565b6000611dfa611df584612cbb565b612c5a565b905082815260208101848484011115611e1257600080fd5b611e1d848285612e5d565b509392505050565b600081359050611e3481613018565b92915050565b600081359050611e498161302f565b92915050565b600081359050611e5e81613046565b92915050565b600081519050611e7381613046565b92915050565b600082601f830112611e8a57600080fd5b8135611e9a848260208601611da9565b91505092915050565b600082601f830112611eb457600080fd5b8135611ec4848260208601611de7565b91505092915050565b600081359050611edc8161305d565b92915050565b600060208284031215611ef457600080fd5b6000611f0284828501611e25565b91505092915050565b60008060408385031215611f1e57600080fd5b6000611f2c85828601611e25565b9250506020611f3d85828601611e25565b9150509250929050565b600080600060608486031215611f5c57600080fd5b6000611f6a86828701611e25565b9350506020611f7b86828701611e25565b9250506040611f8c86828701611ecd565b9150509250925092565b60008060008060808587031215611fac57600080fd5b6000611fba87828801611e25565b9450506020611fcb87828801611e25565b9350506040611fdc87828801611ecd565b925050606085013567ffffffffffffffff811115611ff957600080fd5b61200587828801611e79565b91505092959194509250565b6000806000806080858703121561202757600080fd5b600061203587828801611e25565b945050602061204687828801611e25565b935050604061205787828801611ecd565b925050606085013567ffffffffffffffff81111561207457600080fd5b61208087828801611ea3565b91505092959194509250565b6000806040838503121561209f57600080fd5b60006120ad85828601611e25565b92505060206120be85828601611e3a565b9150509250929050565b600080604083850312156120db57600080fd5b60006120e985828601611e25565b925050602083013567ffffffffffffffff81111561210657600080fd5b61211285828601611ea3565b9150509250929050565b6000806040838503121561212f57600080fd5b600061213d85828601611e25565b925050602061214e85828601611ecd565b9150509250929050565b60006020828403121561216a57600080fd5b600061217884828501611e4f565b91505092915050565b60006020828403121561219357600080fd5b60006121a184828501611e64565b91505092915050565b6000602082840312156121bc57600080fd5b60006121ca84828501611ecd565b91505092915050565b6121dc81612de9565b82525050565b6121eb81612dfb565b82525050565b60006121fc82612ceb565b6122068185612d01565b9350612216818560208601612e6c565b61221f81613007565b840191505092915050565b600061223582612cf6565b61223f8185612d12565b935061224f818560208601612e6c565b61225881613007565b840191505092915050565b600061226e82612cf6565b6122788185612d23565b9350612288818560208601612e6c565b80840191505092915050565b60006122a1603283612d12565b91507f4552433732313a207472616e7366657220746f206e6f6e20455243373231526560008301527f63656976657220696d706c656d656e74657200000000000000000000000000006020830152604082019050919050565b6000612307601c83612d12565b91507f4552433732313a20746f6b656e20616c7265616479206d696e746564000000006000830152602082019050919050565b6000612347602483612d12565b91507f4552433732313a207472616e7366657220746f20746865207a65726f2061646460008301527f72657373000000000000000000000000000000000000000000000000000000006020830152604082019050919050565b60006123ad601983612d12565b91507f4552433732313a20617070726f766520746f2063616c6c6572000000000000006000830152602082019050919050565b60006123ed602c83612d12565b91507f4552433732313a206f70657261746f7220717565727920666f72206e6f6e657860008301527f697374656e7420746f6b656e00000000000000000000000000000000000000006020830152604082019050919050565b6000612453600483612d12565b91507f484f4c44000000000000000000000000000000000000000000000000000000006000830152602082019050919050565b6000612493603883612d12565b91507f4552433732313a20617070726f76652063616c6c6572206973206e6f74206f7760008301527f6e6572206e6f7220617070726f76656420666f7220616c6c00000000000000006020830152604082019050919050565b60006124f9602a83612d12565b91507f4552433732313a2062616c616e636520717565727920666f7220746865207a6560008301527f726f2061646472657373000000000000000000000000000000000000000000006020830152604082019050919050565b600061255f602983612d12565b91507f4552433732313a206f776e657220717565727920666f72206e6f6e657869737460008301527f656e7420746f6b656e00000000000000000000000000000000000000000000006020830152604082019050919050565b60006125c5602e83612d12565b91507f45524337323155524953746f726167653a2055524920736574206f66206e6f6e60008301527f6578697374656e7420746f6b656e0000000000000000000000000000000000006020830152604082019050919050565b600061262b602083612d12565b91507f4552433732313a206d696e7420746f20746865207a65726f20616464726573736000830152602082019050919050565b600061266b603183612d12565b91507f45524337323155524953746f726167653a2055524920717565727920666f722060008301527f6e6f6e6578697374656e7420746f6b656e0000000000000000000000000000006020830152604082019050919050565b60006126d1602c83612d12565b91507f4552433732313a20617070726f76656420717565727920666f72206e6f6e657860008301527f697374656e7420746f6b656e00000000000000000000000000000000000000006020830152604082019050919050565b6000612737602983612d12565b91507f4552433732313a207472616e73666572206f6620746f6b656e2074686174206960008301527f73206e6f74206f776e00000000000000000000000000000000000000000000006020830152604082019050919050565b600061279d602f83612d12565b91507f4552433732314d657461646174613a2055524920717565727920666f72206e6f60008301527f6e6578697374656e7420746f6b656e00000000000000000000000000000000006020830152604082019050919050565b6000612803602183612d12565b91507f4552433732313a20617070726f76616c20746f2063757272656e74206f776e6560008301527f72000000000000000000000000000000000000000000000000000000000000006020830152604082019050919050565b6000612869602883612d12565b91507f526563697069656e743a20697320612070617374206f776e6572206f6620746860008301527f697320746f6b656e0000000000000000000000000000000000000000000000006020830152604082019050919050565b60006128cf603183612d12565b91507f4552433732313a207472616e736665722063616c6c6572206973206e6f74206f60008301527f776e6572206e6f7220617070726f7665640000000000000000000000000000006020830152604082019050919050565b61293181612e53565b82525050565b60006129438285612263565b915061294f8284612263565b91508190509392505050565b600060208201905061297060008301846121d3565b92915050565b600060808201905061298b60008301876121d3565b61299860208301866121d3565b6129a56040830185612928565b81810360608301526129b781846121f1565b905095945050505050565b60006020820190506129d760008301846121e2565b92915050565b600060208201905081810360008301526129f7818461222a565b905092915050565b60006020820190508181036000830152612a1881612294565b9050919050565b60006020820190508181036000830152612a38816122fa565b9050919050565b60006020820190508181036000830152612a588161233a565b9050919050565b60006020820190508181036000830152612a78816123a0565b9050919050565b60006020820190508181036000830152612a98816123e0565b9050919050565b60006020820190508181036000830152612ab881612446565b9050919050565b60006020820190508181036000830152612ad881612486565b9050919050565b60006020820190508181036000830152612af8816124ec565b9050919050565b60006020820190508181036000830152612b1881612552565b9050919050565b60006020820190508181036000830152612b38816125b8565b9050919050565b60006020820190508181036000830152612b588161261e565b9050919050565b60006020820190508181036000830152612b788161265e565b9050919050565b60006020820190508181036000830152612b98816126c4565b9050919050565b60006020820190508181036000830152612bb88161272a565b9050919050565b60006020820190508181036000830152612bd881612790565b9050919050565b60006020820190508181036000830152612bf8816127f6565b9050919050565b60006020820190508181036000830152612c188161285c565b9050919050565b60006020820190508181036000830152612c38816128c2565b9050919050565b6000602082019050612c546000830184612928565b92915050565b6000604051905081810181811067ffffffffffffffff82111715612c8157612c80612fd8565b5b8060405250919050565b600067ffffffffffffffff821115612ca657612ca5612fd8565b5b601f19601f8301169050602081019050919050565b600067ffffffffffffffff821115612cd657612cd5612fd8565b5b601f19601f8301169050602081019050919050565b600081519050919050565b600081519050919050565b600082825260208201905092915050565b600082825260208201905092915050565b600081905092915050565b6000612d3982612e53565b9150612d4483612e53565b9250827fffffffffffffffffffffffffffffffffffffffffffffffffffffffffffffffff03821115612d7957612d78612f4b565b5b828201905092915050565b6000612d8f82612e53565b9150612d9a83612e53565b925082612daa57612da9612f7a565b5b828204905092915050565b6000612dc082612e53565b9150612dcb83612e53565b925082821015612dde57612ddd612f4b565b5b828203905092915050565b6000612df482612e33565b9050919050565b60008115159050919050565b60007fffffffff0000000000000000000000000000000000000000000000000000000082169050919050565b600073ffffffffffffffffffffffffffffffffffffffff82169050919050565b6000819050919050565b82818337600083830152505050565b60005b83811015612e8a578082015181840152602081019050612e6f565b83811115612e99576000848401525b50505050565b60006002820490506001821680612eb757607f821691505b60208210811415612ecb57612eca612fa9565b5b50919050565b6000612edc82612e53565b91507fffffffffffffffffffffffffffffffffffffffffffffffffffffffffffffffff821415612f0f57612f0e612f4b565b5b600182019050919050565b6000612f2582612e53565b9150612f3083612e53565b925082612f4057612f3f612f7a565b5b828206905092915050565b7f4e487b7100000000000000000000000000000000000000000000000000000000600052601160045260246000fd5b7f4e487b7100000000000000000000000000000000000000000000000000000000600052601260045260246000fd5b7f4e487b7100000000000000000000000000000000000000000000000000000000600052602260045260246000fd5b7f4e487b7100000000000000000000000000000000000000000000000000000000600052604160045260246000fd5b6000601f19601f8301169050919050565b61302181612de9565b811461302c57600080fd5b50565b61303881612dfb565b811461304357600080fd5b50565b61304f81612e07565b811461305a57600080fd5b50565b61306681612e53565b811461307157600080fd5b5056fea2646970667358221220a753448e0cba3392550fec75f95c8f49811cda47442d6ed8590693619dafa32464736f6c63430008000033",
  "immutableReferences": {},
  "source": "// contracts/BlessedCoinContracts.sol\n// SPDX-License-Identifier: MIT\npragma solidity ^0.8.0;\n\nimport \"@openzeppelin/contracts/token/ERC721/ERC721.sol\";\nimport \"@openzeppelin/contracts/token/ERC721/extensions/ERC721URIStorage.sol\";\nimport \"@openzeppelin/contracts/utils/Counters.sol\";\n\ncontract BlessedCoinContract is ERC721URIStorage {\n    using Counters for Counters.Counter;\n    Counters.Counter private _tokenIds;\n\n\n\n    constructor() ERC721(\"BlessedCoin\", \"BLESSED\") {}\n    \n    uint256 lastTransaction = 0;\n\n    struct TokenOwners {\n        address token;\n        mapping(address => bool) owners; \n    }\n\n    mapping (uint256 => TokenOwners) pastOwners;\n\n    function isPastOwner(address to, uint256 tokenId) internal view returns (bool) {\n        return pastOwners[tokenId].owners[to];\n    }\n    \n    function getLatestID() external view returns (uint256) {\n        uint256 current = _tokenIds.current();\n        return current;\n    }\n\n    function transferFrom(address from,address to,uint256 tokenId ,string memory newURI) external virtual {\n        _setTokenURI(tokenId, newURI);\n        super.transferFrom(from,to,tokenId);\n\n    }\n\n    function _beforeTokenTransfer(address from, address to, uint256 tokenId) \n        internal virtual override \n    {\n        super._beforeTokenTransfer(from, to, tokenId);\n        require(isPastOwner(to, tokenId) == false, \"Recipient: is a past owner of this token\");\n        require(true == false, \"HOLD\");\n        pastOwners[tokenId].owners[to] = true;\n        lastTransaction = block.timestamp;\n    }\n\n    function validateLastTransaction() public view returns (bool){\n        uint256 timestamp = block.timestamp - lastTransaction;\n        \n        if(timestamp < 86400) {\n            return true;\n        } else {\n            return false;\n        }\n    }\n\n\n    function awardItem(address recipient, string memory metadataURI)\n        public\n        returns (uint256)\n    {\n        validateLastTransaction();\n        _tokenIds.increment();\n        \n        uint256 newItemId = _tokenIds.current();\n        _mint(recipient, newItemId);\n        _setTokenURI(newItemId, metadataURI);\n        if(_exists(_tokenIds.current() - 1)) {\n            _burn(_tokenIds.current() - 1);\n        }\n\n        return newItemId;\n    }\n}",
  "sourcePath": "/Users/shaunnorton/dev/courses/BEW2.4/blessed-coin/contracts/BlessedCoinContract.sol",
  "compiler": {
    "name": "solc",
    "version": "0.8.0+commit.c7dfd78e.Linux.g++"
  },
  "schemaVersion": "3.4.1",
  "updatedAt": "2021-07-15T18:48:07.007Z",
  "networkType": "ethereum",
  "devdoc": {
    "kind": "dev",
    "methods": {
      "approve(address,uint256)": {
        "details": "See {IERC721-approve}."
      },
      "balanceOf(address)": {
        "details": "See {IERC721-balanceOf}."
      },
      "getApproved(uint256)": {
        "details": "See {IERC721-getApproved}."
      },
      "isApprovedForAll(address,address)": {
        "details": "See {IERC721-isApprovedForAll}."
      },
      "name()": {
        "details": "See {IERC721Metadata-name}."
      },
      "ownerOf(uint256)": {
        "details": "See {IERC721-ownerOf}."
      },
      "safeTransferFrom(address,address,uint256)": {
        "details": "See {IERC721-safeTransferFrom}."
      },
      "safeTransferFrom(address,address,uint256,bytes)": {
        "details": "See {IERC721-safeTransferFrom}."
      },
      "setApprovalForAll(address,bool)": {
        "details": "See {IERC721-setApprovalForAll}."
      },
      "supportsInterface(bytes4)": {
        "details": "See {IERC165-supportsInterface}."
      },
      "symbol()": {
        "details": "See {IERC721Metadata-symbol}."
      },
      "tokenURI(uint256)": {
        "details": "See {IERC721Metadata-tokenURI}."
      },
      "transferFrom(address,address,uint256)": {
        "details": "See {IERC721-transferFrom}."
      }
    },
    "version": 1
  },
  "userdoc": {
    "kind": "user",
    "methods": {},
    "version": 1
  }
}