{
  "contractName": "BlessedCoinContract",
  "abi": [
    {
      "inputs": [],
      "stateMutability": "nonpayable",
      "type": "constructor"
    },
    {
      "anonymous": false,
      "inputs": [
        {
          "indexed": true,
          "internalType": "address",
          "name": "owner",
          "type": "address"
        },
        {
          "indexed": true,
          "internalType": "address",
          "name": "approved",
          "type": "address"
        },
        {
          "indexed": true,
          "internalType": "uint256",
          "name": "tokenId",
          "type": "uint256"
        }
      ],
      "name": "Approval",
      "type": "event"
    },
    {
      "anonymous": false,
      "inputs": [
        {
          "indexed": true,
          "internalType": "address",
          "name": "owner",
          "type": "address"
        },
        {
          "indexed": true,
          "internalType": "address",
          "name": "operator",
          "type": "address"
        },
        {
          "indexed": false,
          "internalType": "bool",
          "name": "approved",
          "type": "bool"
        }
      ],
      "name": "ApprovalForAll",
      "type": "event"
    },
    {
      "anonymous": false,
      "inputs": [
        {
          "indexed": true,
          "internalType": "address",
          "name": "from",
          "type": "address"
        },
        {
          "indexed": true,
          "internalType": "address",
          "name": "to",
          "type": "address"
        },
        {
          "indexed": true,
          "internalType": "uint256",
          "name": "tokenId",
          "type": "uint256"
        }
      ],
      "name": "Transfer",
      "type": "event"
    },
    {
      "inputs": [
        {
          "internalType": "address",
          "name": "to",
          "type": "address"
        },
        {
          "internalType": "uint256",
          "name": "tokenId",
          "type": "uint256"
        }
      ],
      "name": "approve",
      "outputs": [],
      "stateMutability": "nonpayable",
      "type": "function"
    },
    {
      "inputs": [
        {
          "internalType": "address",
          "name": "owner",
          "type": "address"
        }
      ],
      "name": "balanceOf",
      "outputs": [
        {
          "internalType": "uint256",
          "name": "",
          "type": "uint256"
        }
      ],
      "stateMutability": "view",
      "type": "function",
      "constant": true
    },
    {
      "inputs": [
        {
          "internalType": "uint256",
          "name": "tokenId",
          "type": "uint256"
        }
      ],
      "name": "getApproved",
      "outputs": [
        {
          "internalType": "address",
          "name": "",
          "type": "address"
        }
      ],
      "stateMutability": "view",
      "type": "function",
      "constant": true
    },
    {
      "inputs": [
        {
          "internalType": "address",
          "name": "owner",
          "type": "address"
        },
        {
          "internalType": "address",
          "name": "operator",
          "type": "address"
        }
      ],
      "name": "isApprovedForAll",
      "outputs": [
        {
          "internalType": "bool",
          "name": "",
          "type": "bool"
        }
      ],
      "stateMutability": "view",
      "type": "function",
      "constant": true
    },
    {
      "inputs": [],
      "name": "name",
      "outputs": [
        {
          "internalType": "string",
          "name": "",
          "type": "string"
        }
      ],
      "stateMutability": "view",
      "type": "function",
      "constant": true
    },
    {
      "inputs": [
        {
          "internalType": "uint256",
          "name": "tokenId",
          "type": "uint256"
        }
      ],
      "name": "ownerOf",
      "outputs": [
        {
          "internalType": "address",
          "name": "",
          "type": "address"
        }
      ],
      "stateMutability": "view",
      "type": "function",
      "constant": true
    },
    {
      "inputs": [
        {
          "internalType": "uint256",
          "name": "",
          "type": "uint256"
        }
      ],
      "name": "pastOwners",
      "outputs": [
        {
          "internalType": "address",
          "name": "token",
          "type": "address"
        }
      ],
      "stateMutability": "view",
      "type": "function",
      "constant": true
    },
    {
      "inputs": [
        {
          "internalType": "address",
          "name": "from",
          "type": "address"
        },
        {
          "internalType": "address",
          "name": "to",
          "type": "address"
        },
        {
          "internalType": "uint256",
          "name": "tokenId",
          "type": "uint256"
        }
      ],
      "name": "safeTransferFrom",
      "outputs": [],
      "stateMutability": "nonpayable",
      "type": "function"
    },
    {
      "inputs": [
        {
          "internalType": "address",
          "name": "from",
          "type": "address"
        },
        {
          "internalType": "address",
          "name": "to",
          "type": "address"
        },
        {
          "internalType": "uint256",
          "name": "tokenId",
          "type": "uint256"
        },
        {
          "internalType": "bytes",
          "name": "_data",
          "type": "bytes"
        }
      ],
      "name": "safeTransferFrom",
      "outputs": [],
      "stateMutability": "nonpayable",
      "type": "function"
    },
    {
      "inputs": [
        {
          "internalType": "address",
          "name": "operator",
          "type": "address"
        },
        {
          "internalType": "bool",
          "name": "approved",
          "type": "bool"
        }
      ],
      "name": "setApprovalForAll",
      "outputs": [],
      "stateMutability": "nonpayable",
      "type": "function"
    },
    {
      "inputs": [
        {
          "internalType": "bytes4",
          "name": "interfaceId",
          "type": "bytes4"
        }
      ],
      "name": "supportsInterface",
      "outputs": [
        {
          "internalType": "bool",
          "name": "",
          "type": "bool"
        }
      ],
      "stateMutability": "view",
      "type": "function",
      "constant": true
    },
    {
      "inputs": [],
      "name": "symbol",
      "outputs": [
        {
          "internalType": "string",
          "name": "",
          "type": "string"
        }
      ],
      "stateMutability": "view",
      "type": "function",
      "constant": true
    },
    {
      "inputs": [
        {
          "internalType": "uint256",
          "name": "tokenId",
          "type": "uint256"
        }
      ],
      "name": "tokenURI",
      "outputs": [
        {
          "internalType": "string",
          "name": "",
          "type": "string"
        }
      ],
      "stateMutability": "view",
      "type": "function",
      "constant": true
    },
    {
      "inputs": [],
      "name": "getLatestID",
      "outputs": [
        {
          "internalType": "uint256",
          "name": "",
          "type": "uint256"
        }
      ],
      "stateMutability": "view",
      "type": "function",
      "constant": true
    },
    {
      "inputs": [
        {
          "internalType": "address",
          "name": "from",
          "type": "address"
        },
        {
          "internalType": "address",
          "name": "to",
          "type": "address"
        },
        {
          "internalType": "uint256",
          "name": "tokenId",
          "type": "uint256"
        },
        {
          "internalType": "string",
          "name": "newURI",
          "type": "string"
        }
      ],
      "name": "transferFrom",
      "outputs": [],
      "stateMutability": "nonpayable",
      "type": "function"
    },
    {
      "inputs": [
        {
          "internalType": "address",
          "name": "from",
          "type": "address"
        },
        {
          "internalType": "address",
          "name": "to",
          "type": "address"
        },
        {
          "internalType": "uint256",
          "name": "tokenId",
          "type": "uint256"
        }
      ],
      "name": "transferFrom",
      "outputs": [],
      "stateMutability": "nonpayable",
      "type": "function"
    },
    {
      "inputs": [],
      "name": "validateLastTransaction",
      "outputs": [
        {
          "internalType": "bool",
          "name": "",
          "type": "bool"
        }
      ],
      "stateMutability": "view",
      "type": "function",
      "constant": true
    },
    {
      "inputs": [
        {
          "internalType": "address",
          "name": "recipient",
          "type": "address"
        },
        {
          "internalType": "string",
          "name": "metadataURI",
          "type": "string"
        }
      ],
      "name": "awardItem",
      "outputs": [
        {
          "internalType": "uint256",
          "name": "",
          "type": "uint256"
        }
      ],
      "stateMutability": "nonpayable",
      "type": "function"
    }
  ],
  "bytecode": "0x608060405260006008553480156200001657600080fd5b506040518060400160405280600b81526020017f426c6573736564436f696e0000000000000000000000000000000000000000008152506040518060400160405280600781526020017f424c45535345440000000000000000000000000000000000000000000000000081525081600090805190602001906200009b929190620000bd565b508060019080519060200190620000b4929190620000bd565b505050620001d2565b828054620000cb906200016d565b90600052602060002090601f016020900481019282620000ef57600085556200013b565b82601f106200010a57805160ff19168380011785556200013b565b828001600101855582156200013b579182015b828111156200013a5782518255916020019190600101906200011d565b5b5090506200014a91906200014e565b5090565b5b80821115620001695760008160009055506001016200014f565b5090565b600060028204905060018216806200018657607f821691505b602082108114156200019d576200019c620001a3565b5b50919050565b7f4e487b7100000000000000000000000000000000000000000000000000000000600052602260045260246000fd5b61307b80620001e26000396000f3fe608060405234801561001057600080fd5b5060043610610133576000357c01000000000000000000000000000000000000000000000000000000009004806370a08231116100bf578063c2c802421161008e578063c2c80242146102fa578063c87b56dd1461032a578063cf3783431461035a578063e985e9c51461038a578063fec62804146103ba57610133565b806370a082311461027457806395d89b41146102a4578063a22cb465146102c2578063b88d4fde146102de57610133565b806312a2fa7e1161010657806312a2fa7e146101d25780631af716ba146101f057806323b872dd1461020c57806342842e0e146102285780636352211e1461024457610133565b806301ffc9a71461013857806306fdde0314610168578063081812fc14610186578063095ea7b3146101b6575b600080fd5b610152600480360381019061014d9190612189565b6103d8565b60405161015f91906129b3565b60405180910390f35b6101706104ba565b60405161017d91906129ce565b60405180910390f35b6101a0600480360381019061019b91906121db565b61054c565b6040516101ad919061294c565b60405180910390f35b6101d060048036038101906101cb919061214d565b6105d1565b005b6101da6106e9565b6040516101e791906129b3565b60405180910390f35b61020a60048036038101906102059190612042565b61071a565b005b61022660048036038101906102219190611f78565b610735565b005b610242600480360381019061023d9190611f78565b610795565b005b61025e600480360381019061025991906121db565b6107b5565b60405161026b919061294c565b60405180910390f35b61028e60048036038101906102899190611f13565b610867565b60405161029b9190612c10565b60405180910390f35b6102ac61091f565b6040516102b991906129ce565b60405180910390f35b6102dc60048036038101906102d791906120bd565b6109b1565b005b6102f860048036038101906102f39190611fc7565b610b32565b005b610314600480360381019061030f91906121db565b610b94565b604051610321919061294c565b60405180910390f35b610344600480360381019061033f91906121db565b610bd2565b60405161035191906129ce565b60405180910390f35b610374600480360381019061036f91906120f9565b610d24565b6040516103819190612c10565b60405180910390f35b6103a4600480360381019061039f9190611f3c565b610da7565b6040516103b191906129b3565b60405180910390f35b6103c2610e3b565b6040516103cf9190612c10565b60405180910390f35b60007f80ac58cd000000000000000000000000000000000000000000000000000000007bffffffffffffffffffffffffffffffffffffffffffffffffffffffff1916827bffffffffffffffffffffffffffffffffffffffffffffffffffffffff191614806104a357507f5b5e139f000000000000000000000000000000000000000000000000000000007bffffffffffffffffffffffffffffffffffffffffffffffffffffffff1916827bffffffffffffffffffffffffffffffffffffffffffffffffffffffff1916145b806104b357506104b282610e51565b5b9050919050565b6060600080546104c990612e70565b80601f01602080910402602001604051908101604052809291908181526020018280546104f590612e70565b80156105425780601f1061051757610100808354040283529160200191610542565b820191906000526020600020905b81548152906001019060200180831161052557829003601f168201915b5050505050905090565b600061055782610ebb565b610596576040517f08c379a000000000000000000000000000000000000000000000000000000000815260040161058d90612b50565b60405180910390fd5b6004600083815260200190815260200160002060009054906101000a900473ffffffffffffffffffffffffffffffffffffffff169050919050565b60006105dc826107b5565b90508073ffffffffffffffffffffffffffffffffffffffff168373ffffffffffffffffffffffffffffffffffffffff16141561064d576040517f08c379a000000000000000000000000000000000000000000000000000000000815260040161064490612bb0565b60405180910390fd5b8073ffffffffffffffffffffffffffffffffffffffff1661066c610f27565b73ffffffffffffffffffffffffffffffffffffffff16148061069b575061069a81610695610f27565b610da7565b5b6106da576040517f08c379a00000000000000000000000000000000000000000000000000000000081526004016106d190612a90565b60405180910390fd5b6106e48383610f2f565b505050565b600080600854426106fa9190612d86565b905062015180811015610711576001915050610717565b60009150505b90565b6107248282610fe8565b61072f848484610735565b50505050565b610746610740610f27565b8261105c565b610785576040517f08c379a000000000000000000000000000000000000000000000000000000000815260040161077c90612bf0565b60405180910390fd5b61079083838361113a565b505050565b6107b083838360405180602001604052806000815250610b32565b505050565b6000806002600084815260200190815260200160002060009054906101000a900473ffffffffffffffffffffffffffffffffffffffff169050600073ffffffffffffffffffffffffffffffffffffffff168173ffffffffffffffffffffffffffffffffffffffff16141561085e576040517f08c379a000000000000000000000000000000000000000000000000000000000815260040161085590612ad0565b60405180910390fd5b80915050919050565b60008073ffffffffffffffffffffffffffffffffffffffff168273ffffffffffffffffffffffffffffffffffffffff1614156108d8576040517f08c379a00000000000000000000000000000000000000000000000000000000081526004016108cf90612ab0565b60405180910390fd5b600360008373ffffffffffffffffffffffffffffffffffffffff1673ffffffffffffffffffffffffffffffffffffffff168152602001908152602001600020549050919050565b60606001805461092e90612e70565b80601f016020809104026020016040519081016040528092919081815260200182805461095a90612e70565b80156109a75780601f1061097c576101008083540402835291602001916109a7565b820191906000526020600020905b81548152906001019060200180831161098a57829003601f168201915b5050505050905090565b6109b9610f27565b73ffffffffffffffffffffffffffffffffffffffff168273ffffffffffffffffffffffffffffffffffffffff161415610a27576040517f08c379a0000000000000000000000000000000000000000000000000000000008152600401610a1e90612a50565b60405180910390fd5b8060056000610a34610f27565b73ffffffffffffffffffffffffffffffffffffffff1673ffffffffffffffffffffffffffffffffffffffff16815260200190815260200160002060008473ffffffffffffffffffffffffffffffffffffffff1673ffffffffffffffffffffffffffffffffffffffff16815260200190815260200160002060006101000a81548160ff0219169083151502179055508173ffffffffffffffffffffffffffffffffffffffff16610ae1610f27565b73ffffffffffffffffffffffffffffffffffffffff167f17307eab39ab6107e8899845ad3d59bd9653f200f220920489ca2b5937696c3183604051610b2691906129b3565b60405180910390a35050565b610b43610b3d610f27565b8361105c565b610b82576040517f08c379a0000000000000000000000000000000000000000000000000000000008152600401610b7990612bf0565b60405180910390fd5b610b8e84848484611396565b50505050565b60096020528060005260406000206000915090508060000160009054906101000a900473ffffffffffffffffffffffffffffffffffffffff16905081565b6060610bdd82610ebb565b610c1c576040517f08c379a0000000000000000000000000000000000000000000000000000000008152600401610c1390612b30565b60405180910390fd5b6000600660008481526020019081526020016000208054610c3c90612e70565b80601f0160208091040260200160405190810160405280929190818152602001828054610c6890612e70565b8015610cb55780601f10610c8a57610100808354040283529160200191610cb5565b820191906000526020600020905b815481529060010190602001808311610c9857829003601f168201915b505050505090506000610cc66113f2565b9050600081511415610cdc578192505050610d1f565b600082511115610d11578082604051602001610cf9929190612928565b60405160208183030381529060405292505050610d1f565b610d1a84611409565b925050505b919050565b6000610d2e6106e9565b50610d3960076114b0565b6000610d4560076114c6565b9050610d5184826114d4565b610d5b8184610fe8565b610d796001610d6a60076114c6565b610d749190612d86565b610ebb565b15610d9d57610d9c6001610d8d60076114c6565b610d979190612d86565b6116a2565b5b8091505092915050565b6000600560008473ffffffffffffffffffffffffffffffffffffffff1673ffffffffffffffffffffffffffffffffffffffff16815260200190815260200160002060008373ffffffffffffffffffffffffffffffffffffffff1673ffffffffffffffffffffffffffffffffffffffff16815260200190815260200160002060009054906101000a900460ff16905092915050565b600080610e4860076114c6565b90508091505090565b60007f01ffc9a7000000000000000000000000000000000000000000000000000000007bffffffffffffffffffffffffffffffffffffffffffffffffffffffff1916827bffffffffffffffffffffffffffffffffffffffffffffffffffffffff1916149050919050565b60008073ffffffffffffffffffffffffffffffffffffffff166002600084815260200190815260200160002060009054906101000a900473ffffffffffffffffffffffffffffffffffffffff1673ffffffffffffffffffffffffffffffffffffffff1614159050919050565b600033905090565b816004600083815260200190815260200160002060006101000a81548173ffffffffffffffffffffffffffffffffffffffff021916908373ffffffffffffffffffffffffffffffffffffffff160217905550808273ffffffffffffffffffffffffffffffffffffffff16610fa2836107b5565b73ffffffffffffffffffffffffffffffffffffffff167f8c5be1e5ebec7d5bd14f71427d1e84f3dd0314c0f7b2291e5b200ac8c7c3b92560405160405180910390a45050565b610ff182610ebb565b611030576040517f08c379a000000000000000000000000000000000000000000000000000000000815260040161102790612af0565b60405180910390fd5b80600660008481526020019081526020016000209080519060200190611057929190611cf7565b505050565b600061106782610ebb565b6110a6576040517f08c379a000000000000000000000000000000000000000000000000000000000815260040161109d90612a70565b60405180910390fd5b60006110b1836107b5565b90508073ffffffffffffffffffffffffffffffffffffffff168473ffffffffffffffffffffffffffffffffffffffff16148061112057508373ffffffffffffffffffffffffffffffffffffffff166111088461054c565b73ffffffffffffffffffffffffffffffffffffffff16145b8061113157506111308185610da7565b5b91505092915050565b8273ffffffffffffffffffffffffffffffffffffffff1661115a826107b5565b73ffffffffffffffffffffffffffffffffffffffff16146111b0576040517f08c379a00000000000000000000000000000000000000000000000000000000081526004016111a790612b70565b60405180910390fd5b600073ffffffffffffffffffffffffffffffffffffffff168273ffffffffffffffffffffffffffffffffffffffff161415611220576040517f08c379a000000000000000000000000000000000000000000000000000000000815260040161121790612a30565b60405180910390fd5b61122b8383836116f5565b611236600082610f2f565b6001600360008573ffffffffffffffffffffffffffffffffffffffff1673ffffffffffffffffffffffffffffffffffffffff16815260200190815260200160002060008282546112869190612d86565b925050819055506001600360008473ffffffffffffffffffffffffffffffffffffffff1673ffffffffffffffffffffffffffffffffffffffff16815260200190815260200160002060008282546112dd9190612cff565b92505081905550816002600083815260200190815260200160002060006101000a81548173ffffffffffffffffffffffffffffffffffffffff021916908373ffffffffffffffffffffffffffffffffffffffff160217905550808273ffffffffffffffffffffffffffffffffffffffff168473ffffffffffffffffffffffffffffffffffffffff167fddf252ad1be2c89b69c2b068fc378daa952ba7f163c4a11628f55a4df523b3ef60405160405180910390a4505050565b6113a184848461113a565b6113ad848484846117c8565b6113ec576040517f08c379a00000000000000000000000000000000000000000000000000000000081526004016113e3906129f0565b60405180910390fd5b50505050565b606060405180602001604052806000815250905090565b606061141482610ebb565b611453576040517f08c379a000000000000000000000000000000000000000000000000000000000815260040161144a90612b90565b60405180910390fd5b600061145d6113f2565b9050600081511161147d57604051806020016040528060008152506114a8565b8061148784611997565b604051602001611498929190612928565b6040516020818303038152906040525b915050919050565b6001816000016000828254019250508190555050565b600081600001549050919050565b600073ffffffffffffffffffffffffffffffffffffffff168273ffffffffffffffffffffffffffffffffffffffff161415611544576040517f08c379a000000000000000000000000000000000000000000000000000000000815260040161153b90612b10565b60405180910390fd5b61154d81610ebb565b1561158d576040517f08c379a000000000000000000000000000000000000000000000000000000000815260040161158490612a10565b60405180910390fd5b611599600083836116f5565b6001600360008473ffffffffffffffffffffffffffffffffffffffff1673ffffffffffffffffffffffffffffffffffffffff16815260200190815260200160002060008282546115e99190612cff565b92505081905550816002600083815260200190815260200160002060006101000a81548173ffffffffffffffffffffffffffffffffffffffff021916908373ffffffffffffffffffffffffffffffffffffffff160217905550808273ffffffffffffffffffffffffffffffffffffffff16600073ffffffffffffffffffffffffffffffffffffffff167fddf252ad1be2c89b69c2b068fc378daa952ba7f163c4a11628f55a4df523b3ef60405160405180910390a45050565b6116ab81611b63565b60006006600083815260200190815260200160002080546116cb90612e70565b9050146116f2576006600082815260200190815260200160002060006116f19190611d7d565b5b50565b611700838383611c74565b6000151561170e8383611c79565b151514611750576040517f08c379a000000000000000000000000000000000000000000000000000000000815260040161174790612bd0565b60405180910390fd5b60016009600083815260200190815260200160002060010160008473ffffffffffffffffffffffffffffffffffffffff1673ffffffffffffffffffffffffffffffffffffffff16815260200190815260200160002060006101000a81548160ff02191690831515021790555042600881905550505050565b60006117e98473ffffffffffffffffffffffffffffffffffffffff16611ce4565b1561198a578373ffffffffffffffffffffffffffffffffffffffff1663150b7a02611812610f27565b8786866040518563ffffffff167c01000000000000000000000000000000000000000000000000000000000281526004016118509493929190612967565b602060405180830381600087803b15801561186a57600080fd5b505af192505050801561189b57506040513d601f19601f8201168201806040525081019061189891906121b2565b60015b61191e573d80600081146118cb576040519150601f19603f3d011682016040523d82523d6000602084013e6118d0565b606091505b50600081511415611916576040517f08c379a000000000000000000000000000000000000000000000000000000000815260040161190d906129f0565b60405180910390fd5b805181602001fd5b63150b7a027c0100000000000000000000000000000000000000000000000000000000027bffffffffffffffffffffffffffffffffffffffffffffffffffffffff1916817bffffffffffffffffffffffffffffffffffffffffffffffffffffffff19161491505061198f565b600190505b949350505050565b606060008214156119df576040518060400160405280600181526020017f30000000000000000000000000000000000000000000000000000000000000008152509050611b5e565b600082905060005b60008214611a115780806119fa90612ea2565b915050600a82611a0a9190612d55565b91506119e7565b60008167ffffffffffffffff811115611a53577f4e487b7100000000000000000000000000000000000000000000000000000000600052604160045260246000fd5b6040519080825280601f01601f191660200182016040528015611a855781602001600182028036833780820191505090505b5090505b60008514611b5757600182611a9e9190612d86565b9150600a85611aad9190612eeb565b6030611ab99190612cff565b7f010000000000000000000000000000000000000000000000000000000000000002818381518110611b14577f4e487b7100000000000000000000000000000000000000000000000000000000600052603260045260246000fd5b60200101907effffffffffffffffffffffffffffffffffffffffffffffffffffffffffffff1916908160001a905350600a85611b509190612d55565b9450611a89565b8093505050505b919050565b6000611b6e826107b5565b9050611b7c816000846116f5565b611b87600083610f2f565b6001600360008373ffffffffffffffffffffffffffffffffffffffff1673ffffffffffffffffffffffffffffffffffffffff1681526020019081526020016000206000828254611bd79190612d86565b925050819055506002600083815260200190815260200160002060006101000a81549073ffffffffffffffffffffffffffffffffffffffff021916905581600073ffffffffffffffffffffffffffffffffffffffff168273ffffffffffffffffffffffffffffffffffffffff167fddf252ad1be2c89b69c2b068fc378daa952ba7f163c4a11628f55a4df523b3ef60405160405180910390a45050565b505050565b60006009600083815260200190815260200160002060010160008473ffffffffffffffffffffffffffffffffffffffff1673ffffffffffffffffffffffffffffffffffffffff16815260200190815260200160002060009054906101000a900460ff16905092915050565b600080823b905060008111915050919050565b828054611d0390612e70565b90600052602060002090601f016020900481019282611d255760008555611d6c565b82601f10611d3e57805160ff1916838001178555611d6c565b82800160010185558215611d6c579182015b82811115611d6b578251825591602001919060010190611d50565b5b509050611d799190611dbd565b5090565b508054611d8990612e70565b6000825580601f10611d9b5750611dba565b601f016020900490600052602060002090810190611db99190611dbd565b5b50565b5b80821115611dd6576000816000905550600101611dbe565b5090565b6000611ded611de884612c5c565b612c2b565b905082815260208101848484011115611e0557600080fd5b611e10848285612e2e565b509392505050565b6000611e2b611e2684612c8c565b612c2b565b905082815260208101848484011115611e4357600080fd5b611e4e848285612e2e565b509392505050565b600081359050611e6581612fe9565b92915050565b600081359050611e7a81613000565b92915050565b600081359050611e8f81613017565b92915050565b600081519050611ea481613017565b92915050565b600082601f830112611ebb57600080fd5b8135611ecb848260208601611dda565b91505092915050565b600082601f830112611ee557600080fd5b8135611ef5848260208601611e18565b91505092915050565b600081359050611f0d8161302e565b92915050565b600060208284031215611f2557600080fd5b6000611f3384828501611e56565b91505092915050565b60008060408385031215611f4f57600080fd5b6000611f5d85828601611e56565b9250506020611f6e85828601611e56565b9150509250929050565b600080600060608486031215611f8d57600080fd5b6000611f9b86828701611e56565b9350506020611fac86828701611e56565b9250506040611fbd86828701611efe565b9150509250925092565b60008060008060808587031215611fdd57600080fd5b6000611feb87828801611e56565b9450506020611ffc87828801611e56565b935050604061200d87828801611efe565b925050606085013567ffffffffffffffff81111561202a57600080fd5b61203687828801611eaa565b91505092959194509250565b6000806000806080858703121561205857600080fd5b600061206687828801611e56565b945050602061207787828801611e56565b935050604061208887828801611efe565b925050606085013567ffffffffffffffff8111156120a557600080fd5b6120b187828801611ed4565b91505092959194509250565b600080604083850312156120d057600080fd5b60006120de85828601611e56565b92505060206120ef85828601611e6b565b9150509250929050565b6000806040838503121561210c57600080fd5b600061211a85828601611e56565b925050602083013567ffffffffffffffff81111561213757600080fd5b61214385828601611ed4565b9150509250929050565b6000806040838503121561216057600080fd5b600061216e85828601611e56565b925050602061217f85828601611efe565b9150509250929050565b60006020828403121561219b57600080fd5b60006121a984828501611e80565b91505092915050565b6000602082840312156121c457600080fd5b60006121d284828501611e95565b91505092915050565b6000602082840312156121ed57600080fd5b60006121fb84828501611efe565b91505092915050565b61220d81612dba565b82525050565b61221c81612dcc565b82525050565b600061222d82612cbc565b6122378185612cd2565b9350612247818560208601612e3d565b61225081612fd8565b840191505092915050565b600061226682612cc7565b6122708185612ce3565b9350612280818560208601612e3d565b61228981612fd8565b840191505092915050565b600061229f82612cc7565b6122a98185612cf4565b93506122b9818560208601612e3d565b80840191505092915050565b60006122d2603283612ce3565b91507f4552433732313a207472616e7366657220746f206e6f6e20455243373231526560008301527f63656976657220696d706c656d656e74657200000000000000000000000000006020830152604082019050919050565b6000612338601c83612ce3565b91507f4552433732313a20746f6b656e20616c7265616479206d696e746564000000006000830152602082019050919050565b6000612378602483612ce3565b91507f4552433732313a207472616e7366657220746f20746865207a65726f2061646460008301527f72657373000000000000000000000000000000000000000000000000000000006020830152604082019050919050565b60006123de601983612ce3565b91507f4552433732313a20617070726f766520746f2063616c6c6572000000000000006000830152602082019050919050565b600061241e602c83612ce3565b91507f4552433732313a206f70657261746f7220717565727920666f72206e6f6e657860008301527f697374656e7420746f6b656e00000000000000000000000000000000000000006020830152604082019050919050565b6000612484603883612ce3565b91507f4552433732313a20617070726f76652063616c6c6572206973206e6f74206f7760008301527f6e6572206e6f7220617070726f76656420666f7220616c6c00000000000000006020830152604082019050919050565b60006124ea602a83612ce3565b91507f4552433732313a2062616c616e636520717565727920666f7220746865207a6560008301527f726f2061646472657373000000000000000000000000000000000000000000006020830152604082019050919050565b6000612550602983612ce3565b91507f4552433732313a206f776e657220717565727920666f72206e6f6e657869737460008301527f656e7420746f6b656e00000000000000000000000000000000000000000000006020830152604082019050919050565b60006125b6602e83612ce3565b91507f45524337323155524953746f726167653a2055524920736574206f66206e6f6e60008301527f6578697374656e7420746f6b656e0000000000000000000000000000000000006020830152604082019050919050565b600061261c602083612ce3565b91507f4552433732313a206d696e7420746f20746865207a65726f20616464726573736000830152602082019050919050565b600061265c603183612ce3565b91507f45524337323155524953746f726167653a2055524920717565727920666f722060008301527f6e6f6e6578697374656e7420746f6b656e0000000000000000000000000000006020830152604082019050919050565b60006126c2602c83612ce3565b91507f4552433732313a20617070726f76656420717565727920666f72206e6f6e657860008301527f697374656e7420746f6b656e00000000000000000000000000000000000000006020830152604082019050919050565b6000612728602983612ce3565b91507f4552433732313a207472616e73666572206f6620746f6b656e2074686174206960008301527f73206e6f74206f776e00000000000000000000000000000000000000000000006020830152604082019050919050565b600061278e602f83612ce3565b91507f4552433732314d657461646174613a2055524920717565727920666f72206e6f60008301527f6e6578697374656e7420746f6b656e00000000000000000000000000000000006020830152604082019050919050565b60006127f4602183612ce3565b91507f4552433732313a20617070726f76616c20746f2063757272656e74206f776e6560008301527f72000000000000000000000000000000000000000000000000000000000000006020830152604082019050919050565b600061285a602883612ce3565b91507f526563697069656e743a20697320612070617374206f776e6572206f6620746860008301527f697320746f6b656e0000000000000000000000000000000000000000000000006020830152604082019050919050565b60006128c0603183612ce3565b91507f4552433732313a207472616e736665722063616c6c6572206973206e6f74206f60008301527f776e6572206e6f7220617070726f7665640000000000000000000000000000006020830152604082019050919050565b61292281612e24565b82525050565b60006129348285612294565b91506129408284612294565b91508190509392505050565b60006020820190506129616000830184612204565b92915050565b600060808201905061297c6000830187612204565b6129896020830186612204565b6129966040830185612919565b81810360608301526129a88184612222565b905095945050505050565b60006020820190506129c86000830184612213565b92915050565b600060208201905081810360008301526129e8818461225b565b905092915050565b60006020820190508181036000830152612a09816122c5565b9050919050565b60006020820190508181036000830152612a298161232b565b9050919050565b60006020820190508181036000830152612a498161236b565b9050919050565b60006020820190508181036000830152612a69816123d1565b9050919050565b60006020820190508181036000830152612a8981612411565b9050919050565b60006020820190508181036000830152612aa981612477565b9050919050565b60006020820190508181036000830152612ac9816124dd565b9050919050565b60006020820190508181036000830152612ae981612543565b9050919050565b60006020820190508181036000830152612b09816125a9565b9050919050565b60006020820190508181036000830152612b298161260f565b9050919050565b60006020820190508181036000830152612b498161264f565b9050919050565b60006020820190508181036000830152612b69816126b5565b9050919050565b60006020820190508181036000830152612b898161271b565b9050919050565b60006020820190508181036000830152612ba981612781565b9050919050565b60006020820190508181036000830152612bc9816127e7565b9050919050565b60006020820190508181036000830152612be98161284d565b9050919050565b60006020820190508181036000830152612c09816128b3565b9050919050565b6000602082019050612c256000830184612919565b92915050565b6000604051905081810181811067ffffffffffffffff82111715612c5257612c51612fa9565b5b8060405250919050565b600067ffffffffffffffff821115612c7757612c76612fa9565b5b601f19601f8301169050602081019050919050565b600067ffffffffffffffff821115612ca757612ca6612fa9565b5b601f19601f8301169050602081019050919050565b600081519050919050565b600081519050919050565b600082825260208201905092915050565b600082825260208201905092915050565b600081905092915050565b6000612d0a82612e24565b9150612d1583612e24565b9250827fffffffffffffffffffffffffffffffffffffffffffffffffffffffffffffffff03821115612d4a57612d49612f1c565b5b828201905092915050565b6000612d6082612e24565b9150612d6b83612e24565b925082612d7b57612d7a612f4b565b5b828204905092915050565b6000612d9182612e24565b9150612d9c83612e24565b925082821015612daf57612dae612f1c565b5b828203905092915050565b6000612dc582612e04565b9050919050565b60008115159050919050565b60007fffffffff0000000000000000000000000000000000000000000000000000000082169050919050565b600073ffffffffffffffffffffffffffffffffffffffff82169050919050565b6000819050919050565b82818337600083830152505050565b60005b83811015612e5b578082015181840152602081019050612e40565b83811115612e6a576000848401525b50505050565b60006002820490506001821680612e8857607f821691505b60208210811415612e9c57612e9b612f7a565b5b50919050565b6000612ead82612e24565b91507fffffffffffffffffffffffffffffffffffffffffffffffffffffffffffffffff821415612ee057612edf612f1c565b5b600182019050919050565b6000612ef682612e24565b9150612f0183612e24565b925082612f1157612f10612f4b565b5b828206905092915050565b7f4e487b7100000000000000000000000000000000000000000000000000000000600052601160045260246000fd5b7f4e487b7100000000000000000000000000000000000000000000000000000000600052601260045260246000fd5b7f4e487b7100000000000000000000000000000000000000000000000000000000600052602260045260246000fd5b7f4e487b7100000000000000000000000000000000000000000000000000000000600052604160045260246000fd5b6000601f19601f8301169050919050565b612ff281612dba565b8114612ffd57600080fd5b50565b61300981612dcc565b811461301457600080fd5b50565b61302081612dd8565b811461302b57600080fd5b50565b61303781612e24565b811461304257600080fd5b5056fea2646970667358221220135d052baa9c844b1620dc905a5c9f9057940dfcd4ddb716b28c21aa36716ed264736f6c63430008000033",
  "immutableReferences": {},
  "source": "// contracts/BlessedCoinContracts.sol\n// SPDX-License-Identifier: MIT\npragma solidity ^0.8.0;\n\nimport \"@openzeppelin/contracts/token/ERC721/ERC721.sol\";\nimport \"@openzeppelin/contracts/token/ERC721/extensions/ERC721URIStorage.sol\";\nimport \"@openzeppelin/contracts/utils/Counters.sol\";\n\n/// @title A coin for sharing blessings\n/// @author Shaun W. Norton\ncontract BlessedCoinContract is ERC721URIStorage {\n    using Counters for Counters.Counter;\n    Counters.Counter private _tokenIds;\n\n\n\n    constructor() ERC721(\"BlessedCoin\", \"BLESSED\") {}\n    \n    uint256 lastTransaction = 0;\n\n    /// @notice Contains a token address and mapping of a tokens owners\n    struct TokenOwners {\n        address token;\n        mapping(address => bool) owners; \n    }\n\n    ///@notice mapping for the past owners of a token\n    mapping (uint256 => TokenOwners) public pastOwners;\n\n    /**\n      @notice Check if address has owned a token\n      @param to The address of the person to check\n      @param tokenId The id of the token to check\n      @return Bool if the person ever owned the token\n    */\n    function isPastOwner(address to, uint256 tokenId) internal view returns (bool) {\n        return pastOwners[tokenId].owners[to];\n    }\n    \n    /**\n      @notice Check the latest id minted\n      @return The latest id of the newest token \n    */\n    function getLatestID() external view returns (uint256) {\n        uint256 current = _tokenIds.current();\n        return current;\n    }\n\n\n    /**\n      @notice Will transfer `token` from `from` to `to` and update its uri with `newURI`\n    */\n    function transferFrom(address from,address to,uint256 tokenId ,string memory newURI) external virtual {\n        _setTokenURI(tokenId, newURI);\n        super.transferFrom(from,to,tokenId);\n    }\n\n\n    /**\n      @inheritdoc ERC721\n      @notice modifies the _beforeTokenTransfer Hook to check if recipient is a past owner and updates the last Transaction\n    */\n    function _beforeTokenTransfer(address from, address to, uint256 tokenId) \n        internal virtual override \n    {\n        super._beforeTokenTransfer(from, to, tokenId);\n        require(isPastOwner(to, tokenId) == false, \"Recipient: is a past owner of this token\");\n        pastOwners[tokenId].owners[to] = true;\n        lastTransaction = block.timestamp;\n    }\n\n    /**\n      @notice Validates the Last Transaction was more than 24Hours Ago\n      @return true if more than 24hours ago false otherwise\n    */\n    function validateLastTransaction() public view returns (bool){\n        uint256 timestamp = block.timestamp - lastTransaction;\n        \n        if(timestamp < 86400) {\n            return true;\n        } else {\n            return false;\n        }\n    }\n\n    /**\n      @notice Mints a token and sends to `address`\n      @param metadataURI the URI where the metadata is stored\n      @return The id of the token that was created.\n    */\n    function awardItem(address recipient, string memory metadataURI)\n        public\n        returns (uint256)\n    {\n        validateLastTransaction();\n        _tokenIds.increment();\n        \n        uint256 newItemId = _tokenIds.current();\n        _mint(recipient, newItemId);\n        _setTokenURI(newItemId, metadataURI);\n        if(_exists(_tokenIds.current() - 1)) {\n            _burn(_tokenIds.current() - 1);\n        }\n\n        return newItemId;\n    }\n}",
  "sourcePath": "/Users/shaunnorton/dev/courses/BEW2.4/blessed-coin/contracts/BlessedCoinContract.sol",
  "compiler": {
    "name": "solc",
    "version": "0.8.0+commit.c7dfd78e.Linux.g++"
  },
  "schemaVersion": "3.4.1",
  "updatedAt": "2021-07-15T20:04:42.272Z",
  "networkType": "ethereum",
  "devdoc": {
    "author": "Shaun W. Norton",
    "kind": "dev",
    "methods": {
      "approve(address,uint256)": {
        "details": "See {IERC721-approve}."
      },
      "awardItem(address,string)": {
        "params": {
          "metadataURI": "the URI where the metadata is stored"
        },
        "returns": {
          "_0": "The id of the token that was created."
        }
      },
      "balanceOf(address)": {
        "details": "See {IERC721-balanceOf}."
      },
      "getApproved(uint256)": {
        "details": "See {IERC721-getApproved}."
      },
      "getLatestID()": {
        "returns": {
          "_0": "The latest id of the newest token "
        }
      },
      "isApprovedForAll(address,address)": {
        "details": "See {IERC721-isApprovedForAll}."
      },
      "name()": {
        "details": "See {IERC721Metadata-name}."
      },
      "ownerOf(uint256)": {
        "details": "See {IERC721-ownerOf}."
      },
      "safeTransferFrom(address,address,uint256)": {
        "details": "See {IERC721-safeTransferFrom}."
      },
      "safeTransferFrom(address,address,uint256,bytes)": {
        "details": "See {IERC721-safeTransferFrom}."
      },
      "setApprovalForAll(address,bool)": {
        "details": "See {IERC721-setApprovalForAll}."
      },
      "supportsInterface(bytes4)": {
        "details": "See {IERC165-supportsInterface}."
      },
      "symbol()": {
        "details": "See {IERC721Metadata-symbol}."
      },
      "tokenURI(uint256)": {
        "details": "See {IERC721Metadata-tokenURI}."
      },
      "transferFrom(address,address,uint256)": {
        "details": "See {IERC721-transferFrom}."
      },
      "validateLastTransaction()": {
        "returns": {
          "_0": "true if more than 24hours ago false otherwise"
        }
      }
    },
    "title": "A coin for sharing blessings",
    "version": 1
  },
  "userdoc": {
    "kind": "user",
    "methods": {
      "awardItem(address,string)": {
        "notice": "Mints a token and sends to `address`"
      },
      "getLatestID()": {
        "notice": "Check the latest id minted"
      },
      "pastOwners(uint256)": {
        "notice": "mapping for the past owners of a token"
      },
      "transferFrom(address,address,uint256,string)": {
        "notice": "Will transfer `token` from `from` to `to` and update its uri with `newURI`"
      },
      "validateLastTransaction()": {
        "notice": "Validates the Last Transaction was more than 24Hours Ago"
      }
    },
    "version": 1
  }
}