{
  "contractName": "BlessedCoinContract",
  "abi": [
    {
      "inputs": [],
      "stateMutability": "nonpayable",
      "type": "constructor"
    },
    {
      "anonymous": false,
      "inputs": [
        {
          "indexed": true,
          "internalType": "address",
          "name": "owner",
          "type": "address"
        },
        {
          "indexed": true,
          "internalType": "address",
          "name": "approved",
          "type": "address"
        },
        {
          "indexed": true,
          "internalType": "uint256",
          "name": "tokenId",
          "type": "uint256"
        }
      ],
      "name": "Approval",
      "type": "event"
    },
    {
      "anonymous": false,
      "inputs": [
        {
          "indexed": true,
          "internalType": "address",
          "name": "owner",
          "type": "address"
        },
        {
          "indexed": true,
          "internalType": "address",
          "name": "operator",
          "type": "address"
        },
        {
          "indexed": false,
          "internalType": "bool",
          "name": "approved",
          "type": "bool"
        }
      ],
      "name": "ApprovalForAll",
      "type": "event"
    },
    {
      "anonymous": false,
      "inputs": [
        {
          "indexed": true,
          "internalType": "address",
          "name": "from",
          "type": "address"
        },
        {
          "indexed": true,
          "internalType": "address",
          "name": "to",
          "type": "address"
        },
        {
          "indexed": true,
          "internalType": "uint256",
          "name": "tokenId",
          "type": "uint256"
        }
      ],
      "name": "Transfer",
      "type": "event"
    },
    {
      "inputs": [
        {
          "internalType": "address",
          "name": "to",
          "type": "address"
        },
        {
          "internalType": "uint256",
          "name": "tokenId",
          "type": "uint256"
        }
      ],
      "name": "approve",
      "outputs": [],
      "stateMutability": "nonpayable",
      "type": "function"
    },
    {
      "inputs": [
        {
          "internalType": "address",
          "name": "owner",
          "type": "address"
        }
      ],
      "name": "balanceOf",
      "outputs": [
        {
          "internalType": "uint256",
          "name": "",
          "type": "uint256"
        }
      ],
      "stateMutability": "view",
      "type": "function",
      "constant": true
    },
    {
      "inputs": [
        {
          "internalType": "uint256",
          "name": "tokenId",
          "type": "uint256"
        }
      ],
      "name": "getApproved",
      "outputs": [
        {
          "internalType": "address",
          "name": "",
          "type": "address"
        }
      ],
      "stateMutability": "view",
      "type": "function",
      "constant": true
    },
    {
      "inputs": [
        {
          "internalType": "address",
          "name": "owner",
          "type": "address"
        },
        {
          "internalType": "address",
          "name": "operator",
          "type": "address"
        }
      ],
      "name": "isApprovedForAll",
      "outputs": [
        {
          "internalType": "bool",
          "name": "",
          "type": "bool"
        }
      ],
      "stateMutability": "view",
      "type": "function",
      "constant": true
    },
    {
      "inputs": [],
      "name": "name",
      "outputs": [
        {
          "internalType": "string",
          "name": "",
          "type": "string"
        }
      ],
      "stateMutability": "view",
      "type": "function",
      "constant": true
    },
    {
      "inputs": [
        {
          "internalType": "uint256",
          "name": "tokenId",
          "type": "uint256"
        }
      ],
      "name": "ownerOf",
      "outputs": [
        {
          "internalType": "address",
          "name": "",
          "type": "address"
        }
      ],
      "stateMutability": "view",
      "type": "function",
      "constant": true
    },
    {
      "inputs": [
        {
          "internalType": "address",
          "name": "from",
          "type": "address"
        },
        {
          "internalType": "address",
          "name": "to",
          "type": "address"
        },
        {
          "internalType": "uint256",
          "name": "tokenId",
          "type": "uint256"
        }
      ],
      "name": "safeTransferFrom",
      "outputs": [],
      "stateMutability": "nonpayable",
      "type": "function"
    },
    {
      "inputs": [
        {
          "internalType": "address",
          "name": "from",
          "type": "address"
        },
        {
          "internalType": "address",
          "name": "to",
          "type": "address"
        },
        {
          "internalType": "uint256",
          "name": "tokenId",
          "type": "uint256"
        },
        {
          "internalType": "bytes",
          "name": "_data",
          "type": "bytes"
        }
      ],
      "name": "safeTransferFrom",
      "outputs": [],
      "stateMutability": "nonpayable",
      "type": "function"
    },
    {
      "inputs": [
        {
          "internalType": "address",
          "name": "operator",
          "type": "address"
        },
        {
          "internalType": "bool",
          "name": "approved",
          "type": "bool"
        }
      ],
      "name": "setApprovalForAll",
      "outputs": [],
      "stateMutability": "nonpayable",
      "type": "function"
    },
    {
      "inputs": [
        {
          "internalType": "bytes4",
          "name": "interfaceId",
          "type": "bytes4"
        }
      ],
      "name": "supportsInterface",
      "outputs": [
        {
          "internalType": "bool",
          "name": "",
          "type": "bool"
        }
      ],
      "stateMutability": "view",
      "type": "function",
      "constant": true
    },
    {
      "inputs": [],
      "name": "symbol",
      "outputs": [
        {
          "internalType": "string",
          "name": "",
          "type": "string"
        }
      ],
      "stateMutability": "view",
      "type": "function",
      "constant": true
    },
    {
      "inputs": [
        {
          "internalType": "uint256",
          "name": "tokenId",
          "type": "uint256"
        }
      ],
      "name": "tokenURI",
      "outputs": [
        {
          "internalType": "string",
          "name": "",
          "type": "string"
        }
      ],
      "stateMutability": "view",
      "type": "function",
      "constant": true
    },
    {
      "inputs": [
        {
          "internalType": "address",
          "name": "from",
          "type": "address"
        },
        {
          "internalType": "address",
          "name": "to",
          "type": "address"
        },
        {
          "internalType": "uint256",
          "name": "tokenId",
          "type": "uint256"
        }
      ],
      "name": "transferFrom",
      "outputs": [],
      "stateMutability": "nonpayable",
      "type": "function"
    },
    {
      "inputs": [],
      "name": "getLatestID",
      "outputs": [
        {
          "internalType": "uint256",
          "name": "",
          "type": "uint256"
        }
      ],
      "stateMutability": "view",
      "type": "function",
      "constant": true
    },
    {
      "inputs": [],
      "name": "validateLastTransaction",
      "outputs": [
        {
          "internalType": "bool",
          "name": "",
          "type": "bool"
        }
      ],
      "stateMutability": "view",
      "type": "function",
      "constant": true
    },
    {
      "inputs": [
        {
          "internalType": "address",
          "name": "recipient",
          "type": "address"
        },
        {
          "internalType": "string",
          "name": "metadataURI",
          "type": "string"
        }
      ],
      "name": "awardItem",
      "outputs": [
        {
          "internalType": "uint256",
          "name": "",
          "type": "uint256"
        }
      ],
      "stateMutability": "nonpayable",
      "type": "function"
    }
  ],
  "bytecode": "0x608060405260006008553480156200001657600080fd5b506040518060400160405280600b81526020017f426c6573736564436f696e0000000000000000000000000000000000000000008152506040518060400160405280600781526020017f424c45535345440000000000000000000000000000000000000000000000000081525081600090805190602001906200009b929190620000bd565b508060019080519060200190620000b4929190620000bd565b505050620001d2565b828054620000cb906200016d565b90600052602060002090601f016020900481019282620000ef57600085556200013b565b82601f106200010a57805160ff19168380011785556200013b565b828001600101855582156200013b579182015b828111156200013a5782518255916020019190600101906200011d565b5b5090506200014a91906200014e565b5090565b5b80821115620001695760008160009055506001016200014f565b5090565b600060028204905060018216806200018657607f821691505b602082108114156200019d576200019c620001a3565b5b50919050565b7f4e487b7100000000000000000000000000000000000000000000000000000000600052602260045260246000fd5b612fd180620001e26000396000f3fe608060405234801561001057600080fd5b506004361061011d576000357c01000000000000000000000000000000000000000000000000000000009004806370a08231116100b4578063c87b56dd11610083578063c87b56dd146102c8578063cf378343146102f8578063e985e9c514610328578063fec62804146103585761011d565b806370a082311461024257806395d89b4114610272578063a22cb46514610290578063b88d4fde146102ac5761011d565b806312a2fa7e116100f057806312a2fa7e146101bc57806323b872dd146101da57806342842e0e146101f65780636352211e146102125761011d565b806301ffc9a71461012257806306fdde0314610152578063081812fc14610170578063095ea7b3146101a0575b600080fd5b61013c60048036038101906101379190612059565b610376565b60405161014991906128e9565b60405180910390f35b61015a610458565b6040516101679190612904565b60405180910390f35b61018a600480360381019061018591906120ab565b6104ea565b6040516101979190612882565b60405180910390f35b6101ba60048036038101906101b5919061201d565b61056f565b005b6101c4610687565b6040516101d191906128e9565b60405180910390f35b6101f460048036038101906101ef9190611ec3565b6106e2565b005b610210600480360381019061020b9190611ec3565b610742565b005b61022c600480360381019061022791906120ab565b610762565b6040516102399190612882565b60405180910390f35b61025c60048036038101906102579190611e5e565b610814565b6040516102699190612b66565b60405180910390f35b61027a6108cc565b6040516102879190612904565b60405180910390f35b6102aa60048036038101906102a59190611f8d565b61095e565b005b6102c660048036038101906102c19190611f12565b610adf565b005b6102e260048036038101906102dd91906120ab565b610b41565b6040516102ef9190612904565b60405180910390f35b610312600480360381019061030d9190611fc9565b610c93565b60405161031f9190612b66565b60405180910390f35b610342600480360381019061033d9190611e87565b610cf2565b60405161034f91906128e9565b60405180910390f35b610360610d86565b60405161036d9190612b66565b60405180910390f35b60007f80ac58cd000000000000000000000000000000000000000000000000000000007bffffffffffffffffffffffffffffffffffffffffffffffffffffffff1916827bffffffffffffffffffffffffffffffffffffffffffffffffffffffff1916148061044157507f5b5e139f000000000000000000000000000000000000000000000000000000007bffffffffffffffffffffffffffffffffffffffffffffffffffffffff1916827bffffffffffffffffffffffffffffffffffffffffffffffffffffffff1916145b80610451575061045082610d9c565b5b9050919050565b60606000805461046790612dc6565b80601f016020809104026020016040519081016040528092919081815260200182805461049390612dc6565b80156104e05780601f106104b5576101008083540402835291602001916104e0565b820191906000526020600020905b8154815290600101906020018083116104c357829003601f168201915b5050505050905090565b60006104f582610e06565b610534576040517f08c379a000000000000000000000000000000000000000000000000000000000815260040161052b90612a86565b60405180910390fd5b6004600083815260200190815260200160002060009054906101000a900473ffffffffffffffffffffffffffffffffffffffff169050919050565b600061057a82610762565b90508073ffffffffffffffffffffffffffffffffffffffff168373ffffffffffffffffffffffffffffffffffffffff1614156105eb576040517f08c379a00000000000000000000000000000000000000000000000000000000081526004016105e290612b06565b60405180910390fd5b8073ffffffffffffffffffffffffffffffffffffffff1661060a610e72565b73ffffffffffffffffffffffffffffffffffffffff161480610639575061063881610633610e72565b610cf2565b5b610678576040517f08c379a000000000000000000000000000000000000000000000000000000000815260040161066f906129c6565b60405180910390fd5b6106828383610e7a565b505050565b6000620151804260085461069b9190612cdc565b116106db576040517f08c379a00000000000000000000000000000000000000000000000000000000081526004016106d290612aa6565b60405180910390fd5b6001905090565b6106f36106ed610e72565b82610f33565b610732576040517f08c379a000000000000000000000000000000000000000000000000000000000815260040161072990612b46565b60405180910390fd5b61073d838383611011565b505050565b61075d83838360405180602001604052806000815250610adf565b505050565b6000806002600084815260200190815260200160002060009054906101000a900473ffffffffffffffffffffffffffffffffffffffff169050600073ffffffffffffffffffffffffffffffffffffffff168173ffffffffffffffffffffffffffffffffffffffff16141561080b576040517f08c379a000000000000000000000000000000000000000000000000000000000815260040161080290612a06565b60405180910390fd5b80915050919050565b60008073ffffffffffffffffffffffffffffffffffffffff168273ffffffffffffffffffffffffffffffffffffffff161415610885576040517f08c379a000000000000000000000000000000000000000000000000000000000815260040161087c906129e6565b60405180910390fd5b600360008373ffffffffffffffffffffffffffffffffffffffff1673ffffffffffffffffffffffffffffffffffffffff168152602001908152602001600020549050919050565b6060600180546108db90612dc6565b80601f016020809104026020016040519081016040528092919081815260200182805461090790612dc6565b80156109545780601f1061092957610100808354040283529160200191610954565b820191906000526020600020905b81548152906001019060200180831161093757829003601f168201915b5050505050905090565b610966610e72565b73ffffffffffffffffffffffffffffffffffffffff168273ffffffffffffffffffffffffffffffffffffffff1614156109d4576040517f08c379a00000000000000000000000000000000000000000000000000000000081526004016109cb90612986565b60405180910390fd5b80600560006109e1610e72565b73ffffffffffffffffffffffffffffffffffffffff1673ffffffffffffffffffffffffffffffffffffffff16815260200190815260200160002060008473ffffffffffffffffffffffffffffffffffffffff1673ffffffffffffffffffffffffffffffffffffffff16815260200190815260200160002060006101000a81548160ff0219169083151502179055508173ffffffffffffffffffffffffffffffffffffffff16610a8e610e72565b73ffffffffffffffffffffffffffffffffffffffff167f17307eab39ab6107e8899845ad3d59bd9653f200f220920489ca2b5937696c3183604051610ad391906128e9565b60405180910390a35050565b610af0610aea610e72565b83610f33565b610b2f576040517f08c379a0000000000000000000000000000000000000000000000000000000008152600401610b2690612b46565b60405180910390fd5b610b3b8484848461126d565b50505050565b6060610b4c82610e06565b610b8b576040517f08c379a0000000000000000000000000000000000000000000000000000000008152600401610b8290612a66565b60405180910390fd5b6000600660008481526020019081526020016000208054610bab90612dc6565b80601f0160208091040260200160405190810160405280929190818152602001828054610bd790612dc6565b8015610c245780601f10610bf957610100808354040283529160200191610c24565b820191906000526020600020905b815481529060010190602001808311610c0757829003601f168201915b505050505090506000610c356112c9565b9050600081511415610c4b578192505050610c8e565b600082511115610c80578082604051602001610c6892919061285e565b60405160208183030381529060405292505050610c8e565b610c89846112e0565b925050505b919050565b6000610c9d610687565b50610ca86007611387565b6000610cb4600761139d565b9050610cc084826113ab565b610cca8184611579565b610ce86001610cd9600761139d565b610ce39190612cdc565b6115ed565b8091505092915050565b6000600560008473ffffffffffffffffffffffffffffffffffffffff1673ffffffffffffffffffffffffffffffffffffffff16815260200190815260200160002060008373ffffffffffffffffffffffffffffffffffffffff1673ffffffffffffffffffffffffffffffffffffffff16815260200190815260200160002060009054906101000a900460ff16905092915050565b600080610d93600761139d565b90508091505090565b60007f01ffc9a7000000000000000000000000000000000000000000000000000000007bffffffffffffffffffffffffffffffffffffffffffffffffffffffff1916827bffffffffffffffffffffffffffffffffffffffffffffffffffffffff1916149050919050565b60008073ffffffffffffffffffffffffffffffffffffffff166002600084815260200190815260200160002060009054906101000a900473ffffffffffffffffffffffffffffffffffffffff1673ffffffffffffffffffffffffffffffffffffffff1614159050919050565b600033905090565b816004600083815260200190815260200160002060006101000a81548173ffffffffffffffffffffffffffffffffffffffff021916908373ffffffffffffffffffffffffffffffffffffffff160217905550808273ffffffffffffffffffffffffffffffffffffffff16610eed83610762565b73ffffffffffffffffffffffffffffffffffffffff167f8c5be1e5ebec7d5bd14f71427d1e84f3dd0314c0f7b2291e5b200ac8c7c3b92560405160405180910390a45050565b6000610f3e82610e06565b610f7d576040517f08c379a0000000000000000000000000000000000000000000000000000000008152600401610f74906129a6565b60405180910390fd5b6000610f8883610762565b90508073ffffffffffffffffffffffffffffffffffffffff168473ffffffffffffffffffffffffffffffffffffffff161480610ff757508373ffffffffffffffffffffffffffffffffffffffff16610fdf846104ea565b73ffffffffffffffffffffffffffffffffffffffff16145b8061100857506110078185610cf2565b5b91505092915050565b8273ffffffffffffffffffffffffffffffffffffffff1661103182610762565b73ffffffffffffffffffffffffffffffffffffffff1614611087576040517f08c379a000000000000000000000000000000000000000000000000000000000815260040161107e90612ac6565b60405180910390fd5b600073ffffffffffffffffffffffffffffffffffffffff168273ffffffffffffffffffffffffffffffffffffffff1614156110f7576040517f08c379a00000000000000000000000000000000000000000000000000000000081526004016110ee90612966565b60405180910390fd5b611102838383611640565b61110d600082610e7a565b6001600360008573ffffffffffffffffffffffffffffffffffffffff1673ffffffffffffffffffffffffffffffffffffffff168152602001908152602001600020600082825461115d9190612cdc565b925050819055506001600360008473ffffffffffffffffffffffffffffffffffffffff1673ffffffffffffffffffffffffffffffffffffffff16815260200190815260200160002060008282546111b49190612c55565b92505081905550816002600083815260200190815260200160002060006101000a81548173ffffffffffffffffffffffffffffffffffffffff021916908373ffffffffffffffffffffffffffffffffffffffff160217905550808273ffffffffffffffffffffffffffffffffffffffff168473ffffffffffffffffffffffffffffffffffffffff167fddf252ad1be2c89b69c2b068fc378daa952ba7f163c4a11628f55a4df523b3ef60405160405180910390a4505050565b611278848484611011565b61128484848484611713565b6112c3576040517f08c379a00000000000000000000000000000000000000000000000000000000081526004016112ba90612926565b60405180910390fd5b50505050565b606060405180602001604052806000815250905090565b60606112eb82610e06565b61132a576040517f08c379a000000000000000000000000000000000000000000000000000000000815260040161132190612ae6565b60405180910390fd5b60006113346112c9565b90506000815111611354576040518060200160405280600081525061137f565b8061135e846118e2565b60405160200161136f92919061285e565b6040516020818303038152906040525b915050919050565b6001816000016000828254019250508190555050565b600081600001549050919050565b600073ffffffffffffffffffffffffffffffffffffffff168273ffffffffffffffffffffffffffffffffffffffff16141561141b576040517f08c379a000000000000000000000000000000000000000000000000000000000815260040161141290612a46565b60405180910390fd5b61142481610e06565b15611464576040517f08c379a000000000000000000000000000000000000000000000000000000000815260040161145b90612946565b60405180910390fd5b61147060008383611640565b6001600360008473ffffffffffffffffffffffffffffffffffffffff1673ffffffffffffffffffffffffffffffffffffffff16815260200190815260200160002060008282546114c09190612c55565b92505081905550816002600083815260200190815260200160002060006101000a81548173ffffffffffffffffffffffffffffffffffffffff021916908373ffffffffffffffffffffffffffffffffffffffff160217905550808273ffffffffffffffffffffffffffffffffffffffff16600073ffffffffffffffffffffffffffffffffffffffff167fddf252ad1be2c89b69c2b068fc378daa952ba7f163c4a11628f55a4df523b3ef60405160405180910390a45050565b61158282610e06565b6115c1576040517f08c379a00000000000000000000000000000000000000000000000000000000081526004016115b890612a26565b60405180910390fd5b806006600084815260200190815260200160002090805190602001906115e8929190611c42565b505050565b6115f681611aae565b600060066000838152602001908152602001600020805461161690612dc6565b90501461163d5760066000828152602001908152602001600020600061163c9190611cc8565b5b50565b61164b838383611bbf565b600015156116598383611bc4565b15151461169b576040517f08c379a000000000000000000000000000000000000000000000000000000000815260040161169290612b26565b60405180910390fd5b60016009600083815260200190815260200160002060010160008473ffffffffffffffffffffffffffffffffffffffff1673ffffffffffffffffffffffffffffffffffffffff16815260200190815260200160002060006101000a81548160ff02191690831515021790555042600881905550505050565b60006117348473ffffffffffffffffffffffffffffffffffffffff16611c2f565b156118d5578373ffffffffffffffffffffffffffffffffffffffff1663150b7a0261175d610e72565b8786866040518563ffffffff167c010000000000000000000000000000000000000000000000000000000002815260040161179b949392919061289d565b602060405180830381600087803b1580156117b557600080fd5b505af19250505080156117e657506040513d601f19601f820116820180604052508101906117e39190612082565b60015b611869573d8060008114611816576040519150601f19603f3d011682016040523d82523d6000602084013e61181b565b606091505b50600081511415611861576040517f08c379a000000000000000000000000000000000000000000000000000000000815260040161185890612926565b60405180910390fd5b805181602001fd5b63150b7a027c0100000000000000000000000000000000000000000000000000000000027bffffffffffffffffffffffffffffffffffffffffffffffffffffffff1916817bffffffffffffffffffffffffffffffffffffffffffffffffffffffff1916149150506118da565b600190505b949350505050565b6060600082141561192a576040518060400160405280600181526020017f30000000000000000000000000000000000000000000000000000000000000008152509050611aa9565b600082905060005b6000821461195c57808061194590612df8565b915050600a826119559190612cab565b9150611932565b60008167ffffffffffffffff81111561199e577f4e487b7100000000000000000000000000000000000000000000000000000000600052604160045260246000fd5b6040519080825280601f01601f1916602001820160405280156119d05781602001600182028036833780820191505090505b5090505b60008514611aa2576001826119e99190612cdc565b9150600a856119f89190612e41565b6030611a049190612c55565b7f010000000000000000000000000000000000000000000000000000000000000002818381518110611a5f577f4e487b7100000000000000000000000000000000000000000000000000000000600052603260045260246000fd5b60200101907effffffffffffffffffffffffffffffffffffffffffffffffffffffffffffff1916908160001a905350600a85611a9b9190612cab565b94506119d4565b8093505050505b919050565b6000611ab982610762565b9050611ac781600084611640565b611ad2600083610e7a565b6001600360008373ffffffffffffffffffffffffffffffffffffffff1673ffffffffffffffffffffffffffffffffffffffff1681526020019081526020016000206000828254611b229190612cdc565b925050819055506002600083815260200190815260200160002060006101000a81549073ffffffffffffffffffffffffffffffffffffffff021916905581600073ffffffffffffffffffffffffffffffffffffffff168273ffffffffffffffffffffffffffffffffffffffff167fddf252ad1be2c89b69c2b068fc378daa952ba7f163c4a11628f55a4df523b3ef60405160405180910390a45050565b505050565b60006009600083815260200190815260200160002060010160008473ffffffffffffffffffffffffffffffffffffffff1673ffffffffffffffffffffffffffffffffffffffff16815260200190815260200160002060009054906101000a900460ff16905092915050565b600080823b905060008111915050919050565b828054611c4e90612dc6565b90600052602060002090601f016020900481019282611c705760008555611cb7565b82601f10611c8957805160ff1916838001178555611cb7565b82800160010185558215611cb7579182015b82811115611cb6578251825591602001919060010190611c9b565b5b509050611cc49190611d08565b5090565b508054611cd490612dc6565b6000825580601f10611ce65750611d05565b601f016020900490600052602060002090810190611d049190611d08565b5b50565b5b80821115611d21576000816000905550600101611d09565b5090565b6000611d38611d3384612bb2565b612b81565b905082815260208101848484011115611d5057600080fd5b611d5b848285612d84565b509392505050565b6000611d76611d7184612be2565b612b81565b905082815260208101848484011115611d8e57600080fd5b611d99848285612d84565b509392505050565b600081359050611db081612f3f565b92915050565b600081359050611dc581612f56565b92915050565b600081359050611dda81612f6d565b92915050565b600081519050611def81612f6d565b92915050565b600082601f830112611e0657600080fd5b8135611e16848260208601611d25565b91505092915050565b600082601f830112611e3057600080fd5b8135611e40848260208601611d63565b91505092915050565b600081359050611e5881612f84565b92915050565b600060208284031215611e7057600080fd5b6000611e7e84828501611da1565b91505092915050565b60008060408385031215611e9a57600080fd5b6000611ea885828601611da1565b9250506020611eb985828601611da1565b9150509250929050565b600080600060608486031215611ed857600080fd5b6000611ee686828701611da1565b9350506020611ef786828701611da1565b9250506040611f0886828701611e49565b9150509250925092565b60008060008060808587031215611f2857600080fd5b6000611f3687828801611da1565b9450506020611f4787828801611da1565b9350506040611f5887828801611e49565b925050606085013567ffffffffffffffff811115611f7557600080fd5b611f8187828801611df5565b91505092959194509250565b60008060408385031215611fa057600080fd5b6000611fae85828601611da1565b9250506020611fbf85828601611db6565b9150509250929050565b60008060408385031215611fdc57600080fd5b6000611fea85828601611da1565b925050602083013567ffffffffffffffff81111561200757600080fd5b61201385828601611e1f565b9150509250929050565b6000806040838503121561203057600080fd5b600061203e85828601611da1565b925050602061204f85828601611e49565b9150509250929050565b60006020828403121561206b57600080fd5b600061207984828501611dcb565b91505092915050565b60006020828403121561209457600080fd5b60006120a284828501611de0565b91505092915050565b6000602082840312156120bd57600080fd5b60006120cb84828501611e49565b91505092915050565b6120dd81612d10565b82525050565b6120ec81612d22565b82525050565b60006120fd82612c12565b6121078185612c28565b9350612117818560208601612d93565b61212081612f2e565b840191505092915050565b600061213682612c1d565b6121408185612c39565b9350612150818560208601612d93565b61215981612f2e565b840191505092915050565b600061216f82612c1d565b6121798185612c4a565b9350612189818560208601612d93565b80840191505092915050565b60006121a2603283612c39565b91507f4552433732313a207472616e7366657220746f206e6f6e20455243373231526560008301527f63656976657220696d706c656d656e74657200000000000000000000000000006020830152604082019050919050565b6000612208601c83612c39565b91507f4552433732313a20746f6b656e20616c7265616479206d696e746564000000006000830152602082019050919050565b6000612248602483612c39565b91507f4552433732313a207472616e7366657220746f20746865207a65726f2061646460008301527f72657373000000000000000000000000000000000000000000000000000000006020830152604082019050919050565b60006122ae601983612c39565b91507f4552433732313a20617070726f766520746f2063616c6c6572000000000000006000830152602082019050919050565b60006122ee602c83612c39565b91507f4552433732313a206f70657261746f7220717565727920666f72206e6f6e657860008301527f697374656e7420746f6b656e00000000000000000000000000000000000000006020830152604082019050919050565b6000612354603883612c39565b91507f4552433732313a20617070726f76652063616c6c6572206973206e6f74206f7760008301527f6e6572206e6f7220617070726f76656420666f7220616c6c00000000000000006020830152604082019050919050565b60006123ba602a83612c39565b91507f4552433732313a2062616c616e636520717565727920666f7220746865207a6560008301527f726f2061646472657373000000000000000000000000000000000000000000006020830152604082019050919050565b6000612420602983612c39565b91507f4552433732313a206f776e657220717565727920666f72206e6f6e657869737460008301527f656e7420746f6b656e00000000000000000000000000000000000000000000006020830152604082019050919050565b6000612486602e83612c39565b91507f45524337323155524953746f726167653a2055524920736574206f66206e6f6e60008301527f6578697374656e7420746f6b656e0000000000000000000000000000000000006020830152604082019050919050565b60006124ec602083612c39565b91507f4552433732313a206d696e7420746f20746865207a65726f20616464726573736000830152602082019050919050565b600061252c603183612c39565b91507f45524337323155524953746f726167653a2055524920717565727920666f722060008301527f6e6f6e6578697374656e7420746f6b656e0000000000000000000000000000006020830152604082019050919050565b6000612592602c83612c39565b91507f4552433732313a20617070726f76656420717565727920666f72206e6f6e657860008301527f697374656e7420746f6b656e00000000000000000000000000000000000000006020830152604082019050919050565b60006125f8603683612c39565b91507f497420686173206e6f74206265656e206c6f6e6720656e6f7567682073696e6360008301527f6520746865206c617374207472616e73616374696f6e000000000000000000006020830152604082019050919050565b600061265e602983612c39565b91507f4552433732313a207472616e73666572206f6620746f6b656e2074686174206960008301527f73206e6f74206f776e00000000000000000000000000000000000000000000006020830152604082019050919050565b60006126c4602f83612c39565b91507f4552433732314d657461646174613a2055524920717565727920666f72206e6f60008301527f6e6578697374656e7420746f6b656e00000000000000000000000000000000006020830152604082019050919050565b600061272a602183612c39565b91507f4552433732313a20617070726f76616c20746f2063757272656e74206f776e6560008301527f72000000000000000000000000000000000000000000000000000000000000006020830152604082019050919050565b6000612790602883612c39565b91507f526563697069656e743a20697320612070617374206f776e6572206f6620746860008301527f697320746f6b656e0000000000000000000000000000000000000000000000006020830152604082019050919050565b60006127f6603183612c39565b91507f4552433732313a207472616e736665722063616c6c6572206973206e6f74206f60008301527f776e6572206e6f7220617070726f7665640000000000000000000000000000006020830152604082019050919050565b61285881612d7a565b82525050565b600061286a8285612164565b91506128768284612164565b91508190509392505050565b600060208201905061289760008301846120d4565b92915050565b60006080820190506128b260008301876120d4565b6128bf60208301866120d4565b6128cc604083018561284f565b81810360608301526128de81846120f2565b905095945050505050565b60006020820190506128fe60008301846120e3565b92915050565b6000602082019050818103600083015261291e818461212b565b905092915050565b6000602082019050818103600083015261293f81612195565b9050919050565b6000602082019050818103600083015261295f816121fb565b9050919050565b6000602082019050818103600083015261297f8161223b565b9050919050565b6000602082019050818103600083015261299f816122a1565b9050919050565b600060208201905081810360008301526129bf816122e1565b9050919050565b600060208201905081810360008301526129df81612347565b9050919050565b600060208201905081810360008301526129ff816123ad565b9050919050565b60006020820190508181036000830152612a1f81612413565b9050919050565b60006020820190508181036000830152612a3f81612479565b9050919050565b60006020820190508181036000830152612a5f816124df565b9050919050565b60006020820190508181036000830152612a7f8161251f565b9050919050565b60006020820190508181036000830152612a9f81612585565b9050919050565b60006020820190508181036000830152612abf816125eb565b9050919050565b60006020820190508181036000830152612adf81612651565b9050919050565b60006020820190508181036000830152612aff816126b7565b9050919050565b60006020820190508181036000830152612b1f8161271d565b9050919050565b60006020820190508181036000830152612b3f81612783565b9050919050565b60006020820190508181036000830152612b5f816127e9565b9050919050565b6000602082019050612b7b600083018461284f565b92915050565b6000604051905081810181811067ffffffffffffffff82111715612ba857612ba7612eff565b5b8060405250919050565b600067ffffffffffffffff821115612bcd57612bcc612eff565b5b601f19601f8301169050602081019050919050565b600067ffffffffffffffff821115612bfd57612bfc612eff565b5b601f19601f8301169050602081019050919050565b600081519050919050565b600081519050919050565b600082825260208201905092915050565b600082825260208201905092915050565b600081905092915050565b6000612c6082612d7a565b9150612c6b83612d7a565b9250827fffffffffffffffffffffffffffffffffffffffffffffffffffffffffffffffff03821115612ca057612c9f612e72565b5b828201905092915050565b6000612cb682612d7a565b9150612cc183612d7a565b925082612cd157612cd0612ea1565b5b828204905092915050565b6000612ce782612d7a565b9150612cf283612d7a565b925082821015612d0557612d04612e72565b5b828203905092915050565b6000612d1b82612d5a565b9050919050565b60008115159050919050565b60007fffffffff0000000000000000000000000000000000000000000000000000000082169050919050565b600073ffffffffffffffffffffffffffffffffffffffff82169050919050565b6000819050919050565b82818337600083830152505050565b60005b83811015612db1578082015181840152602081019050612d96565b83811115612dc0576000848401525b50505050565b60006002820490506001821680612dde57607f821691505b60208210811415612df257612df1612ed0565b5b50919050565b6000612e0382612d7a565b91507fffffffffffffffffffffffffffffffffffffffffffffffffffffffffffffffff821415612e3657612e35612e72565b5b600182019050919050565b6000612e4c82612d7a565b9150612e5783612d7a565b925082612e6757612e66612ea1565b5b828206905092915050565b7f4e487b7100000000000000000000000000000000000000000000000000000000600052601160045260246000fd5b7f4e487b7100000000000000000000000000000000000000000000000000000000600052601260045260246000fd5b7f4e487b7100000000000000000000000000000000000000000000000000000000600052602260045260246000fd5b7f4e487b7100000000000000000000000000000000000000000000000000000000600052604160045260246000fd5b6000601f19601f8301169050919050565b612f4881612d10565b8114612f5357600080fd5b50565b612f5f81612d22565b8114612f6a57600080fd5b50565b612f7681612d2e565b8114612f8157600080fd5b50565b612f8d81612d7a565b8114612f9857600080fd5b5056fea26469706673582212205b57130f8a39f797ab662b306a166074ccce6519ffbad2c49fac4679172b775664736f6c63430008000033",
  "immutableReferences": {},
  "source": "// contracts/BlessedCoinContracts.sol\n// SPDX-License-Identifier: MIT\npragma solidity ^0.8.0;\n\nimport \"@openzeppelin/contracts/token/ERC721/ERC721.sol\";\nimport \"@openzeppelin/contracts/token/ERC721/extensions/ERC721URIStorage.sol\";\nimport \"@openzeppelin/contracts/utils/Counters.sol\";\n\ncontract BlessedCoinContract is ERC721URIStorage {\n    using Counters for Counters.Counter;\n    Counters.Counter private _tokenIds;\n\n\n\n    constructor() ERC721(\"BlessedCoin\", \"BLESSED\") {}\n    \n    uint256 lastTransaction = 0;\n\n    struct TokenOwners {\n        address token;\n        mapping(address => bool) owners; \n    }\n\n    mapping (uint256 => TokenOwners) pastOwners;\n\n    function isPastOwner(address to, uint256 tokenId) internal view returns (bool) {\n        return pastOwners[tokenId].owners[to];\n    }\n    \n    function getLatestID() external view returns (uint256) {\n        uint256 current = _tokenIds.current();\n        return current;\n    }\n\n    function _beforeTokenTransfer(address from, address to, uint256 tokenId) \n        internal virtual override \n    {\n        super._beforeTokenTransfer(from, to, tokenId);\n        require(isPastOwner(to, tokenId) == false, \"Recipient: is a past owner of this token\");\n        pastOwners[tokenId].owners[to] = true;\n        lastTransaction = block.timestamp;\n    }\n\n    function validateLastTransaction() public view returns (bool){\n        require((lastTransaction-block.timestamp) > 86400, \"It has not been long enough since the last transaction\");\n        return true;\n    }\n\n\n    function awardItem(address recipient, string memory metadataURI)\n        public\n        returns (uint256)\n    {\n        validateLastTransaction();\n        _tokenIds.increment();\n        \n        uint256 newItemId = _tokenIds.current();\n        _mint(recipient, newItemId);\n        _setTokenURI(newItemId, metadataURI);\n        _burn(_tokenIds.current() - 1);\n\n        return newItemId;\n    }\n}",
  "sourcePath": "/Users/shaunnorton/dev/courses/BEW2.4/blessed-coin/contracts/BlessedCoinContract.sol",
  "compiler": {
    "name": "solc",
    "version": "0.8.0+commit.c7dfd78e.Linux.g++"
  },
  "schemaVersion": "3.4.1",
  "updatedAt": "2021-07-15T03:15:05.623Z",
  "networkType": "ethereum",
  "devdoc": {
    "kind": "dev",
    "methods": {
      "approve(address,uint256)": {
        "details": "See {IERC721-approve}."
      },
      "balanceOf(address)": {
        "details": "See {IERC721-balanceOf}."
      },
      "getApproved(uint256)": {
        "details": "See {IERC721-getApproved}."
      },
      "isApprovedForAll(address,address)": {
        "details": "See {IERC721-isApprovedForAll}."
      },
      "name()": {
        "details": "See {IERC721Metadata-name}."
      },
      "ownerOf(uint256)": {
        "details": "See {IERC721-ownerOf}."
      },
      "safeTransferFrom(address,address,uint256)": {
        "details": "See {IERC721-safeTransferFrom}."
      },
      "safeTransferFrom(address,address,uint256,bytes)": {
        "details": "See {IERC721-safeTransferFrom}."
      },
      "setApprovalForAll(address,bool)": {
        "details": "See {IERC721-setApprovalForAll}."
      },
      "supportsInterface(bytes4)": {
        "details": "See {IERC165-supportsInterface}."
      },
      "symbol()": {
        "details": "See {IERC721Metadata-symbol}."
      },
      "tokenURI(uint256)": {
        "details": "See {IERC721Metadata-tokenURI}."
      },
      "transferFrom(address,address,uint256)": {
        "details": "See {IERC721-transferFrom}."
      }
    },
    "version": 1
  },
  "userdoc": {
    "kind": "user",
    "methods": {},
    "version": 1
  }
}