{
  "contractName": "BlessedCoinContract",
  "abi": [
    {
      "inputs": [],
      "stateMutability": "nonpayable",
      "type": "constructor"
    },
    {
      "anonymous": false,
      "inputs": [
        {
          "indexed": true,
          "internalType": "address",
          "name": "owner",
          "type": "address"
        },
        {
          "indexed": true,
          "internalType": "address",
          "name": "approved",
          "type": "address"
        },
        {
          "indexed": true,
          "internalType": "uint256",
          "name": "tokenId",
          "type": "uint256"
        }
      ],
      "name": "Approval",
      "type": "event"
    },
    {
      "anonymous": false,
      "inputs": [
        {
          "indexed": true,
          "internalType": "address",
          "name": "owner",
          "type": "address"
        },
        {
          "indexed": true,
          "internalType": "address",
          "name": "operator",
          "type": "address"
        },
        {
          "indexed": false,
          "internalType": "bool",
          "name": "approved",
          "type": "bool"
        }
      ],
      "name": "ApprovalForAll",
      "type": "event"
    },
    {
      "anonymous": false,
      "inputs": [
        {
          "indexed": true,
          "internalType": "address",
          "name": "from",
          "type": "address"
        },
        {
          "indexed": true,
          "internalType": "address",
          "name": "to",
          "type": "address"
        },
        {
          "indexed": true,
          "internalType": "uint256",
          "name": "tokenId",
          "type": "uint256"
        }
      ],
      "name": "Transfer",
      "type": "event"
    },
    {
      "inputs": [
        {
          "internalType": "address",
          "name": "to",
          "type": "address"
        },
        {
          "internalType": "uint256",
          "name": "tokenId",
          "type": "uint256"
        }
      ],
      "name": "approve",
      "outputs": [],
      "stateMutability": "nonpayable",
      "type": "function"
    },
    {
      "inputs": [
        {
          "internalType": "address",
          "name": "owner",
          "type": "address"
        }
      ],
      "name": "balanceOf",
      "outputs": [
        {
          "internalType": "uint256",
          "name": "",
          "type": "uint256"
        }
      ],
      "stateMutability": "view",
      "type": "function",
      "constant": true
    },
    {
      "inputs": [
        {
          "internalType": "uint256",
          "name": "tokenId",
          "type": "uint256"
        }
      ],
      "name": "getApproved",
      "outputs": [
        {
          "internalType": "address",
          "name": "",
          "type": "address"
        }
      ],
      "stateMutability": "view",
      "type": "function",
      "constant": true
    },
    {
      "inputs": [
        {
          "internalType": "address",
          "name": "owner",
          "type": "address"
        },
        {
          "internalType": "address",
          "name": "operator",
          "type": "address"
        }
      ],
      "name": "isApprovedForAll",
      "outputs": [
        {
          "internalType": "bool",
          "name": "",
          "type": "bool"
        }
      ],
      "stateMutability": "view",
      "type": "function",
      "constant": true
    },
    {
      "inputs": [],
      "name": "name",
      "outputs": [
        {
          "internalType": "string",
          "name": "",
          "type": "string"
        }
      ],
      "stateMutability": "view",
      "type": "function",
      "constant": true
    },
    {
      "inputs": [
        {
          "internalType": "uint256",
          "name": "tokenId",
          "type": "uint256"
        }
      ],
      "name": "ownerOf",
      "outputs": [
        {
          "internalType": "address",
          "name": "",
          "type": "address"
        }
      ],
      "stateMutability": "view",
      "type": "function",
      "constant": true
    },
    {
      "inputs": [
        {
          "internalType": "address",
          "name": "from",
          "type": "address"
        },
        {
          "internalType": "address",
          "name": "to",
          "type": "address"
        },
        {
          "internalType": "uint256",
          "name": "tokenId",
          "type": "uint256"
        }
      ],
      "name": "safeTransferFrom",
      "outputs": [],
      "stateMutability": "nonpayable",
      "type": "function"
    },
    {
      "inputs": [
        {
          "internalType": "address",
          "name": "from",
          "type": "address"
        },
        {
          "internalType": "address",
          "name": "to",
          "type": "address"
        },
        {
          "internalType": "uint256",
          "name": "tokenId",
          "type": "uint256"
        },
        {
          "internalType": "bytes",
          "name": "_data",
          "type": "bytes"
        }
      ],
      "name": "safeTransferFrom",
      "outputs": [],
      "stateMutability": "nonpayable",
      "type": "function"
    },
    {
      "inputs": [
        {
          "internalType": "address",
          "name": "operator",
          "type": "address"
        },
        {
          "internalType": "bool",
          "name": "approved",
          "type": "bool"
        }
      ],
      "name": "setApprovalForAll",
      "outputs": [],
      "stateMutability": "nonpayable",
      "type": "function"
    },
    {
      "inputs": [
        {
          "internalType": "bytes4",
          "name": "interfaceId",
          "type": "bytes4"
        }
      ],
      "name": "supportsInterface",
      "outputs": [
        {
          "internalType": "bool",
          "name": "",
          "type": "bool"
        }
      ],
      "stateMutability": "view",
      "type": "function",
      "constant": true
    },
    {
      "inputs": [],
      "name": "symbol",
      "outputs": [
        {
          "internalType": "string",
          "name": "",
          "type": "string"
        }
      ],
      "stateMutability": "view",
      "type": "function",
      "constant": true
    },
    {
      "inputs": [
        {
          "internalType": "uint256",
          "name": "tokenId",
          "type": "uint256"
        }
      ],
      "name": "tokenURI",
      "outputs": [
        {
          "internalType": "string",
          "name": "",
          "type": "string"
        }
      ],
      "stateMutability": "view",
      "type": "function",
      "constant": true
    },
    {
      "inputs": [],
      "name": "getLatestID",
      "outputs": [
        {
          "internalType": "uint256",
          "name": "",
          "type": "uint256"
        }
      ],
      "stateMutability": "view",
      "type": "function",
      "constant": true
    },
    {
      "inputs": [
        {
          "internalType": "address",
          "name": "from",
          "type": "address"
        },
        {
          "internalType": "address",
          "name": "to",
          "type": "address"
        },
        {
          "internalType": "uint256",
          "name": "tokenId",
          "type": "uint256"
        },
        {
          "internalType": "string",
          "name": "newURI",
          "type": "string"
        }
      ],
      "name": "transferFrom",
      "outputs": [],
      "stateMutability": "nonpayable",
      "type": "function"
    },
    {
      "inputs": [
        {
          "internalType": "address",
          "name": "from",
          "type": "address"
        },
        {
          "internalType": "address",
          "name": "to",
          "type": "address"
        },
        {
          "internalType": "uint256",
          "name": "tokenId",
          "type": "uint256"
        }
      ],
      "name": "transferFrom",
      "outputs": [],
      "stateMutability": "nonpayable",
      "type": "function"
    },
    {
      "inputs": [],
      "name": "validateLastTransaction",
      "outputs": [
        {
          "internalType": "bool",
          "name": "",
          "type": "bool"
        }
      ],
      "stateMutability": "view",
      "type": "function",
      "constant": true
    },
    {
      "inputs": [
        {
          "internalType": "address",
          "name": "recipient",
          "type": "address"
        },
        {
          "internalType": "string",
          "name": "metadataURI",
          "type": "string"
        }
      ],
      "name": "awardItem",
      "outputs": [
        {
          "internalType": "uint256",
          "name": "",
          "type": "uint256"
        }
      ],
      "stateMutability": "nonpayable",
      "type": "function"
    }
  ],
  "bytecode": "0x608060405260006008553480156200001657600080fd5b506040518060400160405280600b81526020017f426c6573736564436f696e0000000000000000000000000000000000000000008152506040518060400160405280600781526020017f424c45535345440000000000000000000000000000000000000000000000000081525081600090805190602001906200009b929190620000bd565b508060019080519060200190620000b4929190620000bd565b505050620001d2565b828054620000cb906200016d565b90600052602060002090601f016020900481019282620000ef57600085556200013b565b82601f106200010a57805160ff19168380011785556200013b565b828001600101855582156200013b579182015b828111156200013a5782518255916020019190600101906200011d565b5b5090506200014a91906200014e565b5090565b5b80821115620001695760008160009055506001016200014f565b5090565b600060028204905060018216806200018657607f821691505b602082108114156200019d576200019c620001a3565b5b50919050565b7f4e487b7100000000000000000000000000000000000000000000000000000000600052602260045260246000fd5b61300280620001e26000396000f3fe608060405234801561001057600080fd5b5060043610610128576000357c0100000000000000000000000000000000000000000000000000000000900480636352211e116100bf578063b88d4fde1161008e578063b88d4fde146102d3578063c87b56dd146102ef578063cf3783431461031f578063e985e9c51461034f578063fec628041461037f57610128565b80636352211e1461023957806370a082311461026957806395d89b4114610299578063a22cb465146102b757610128565b806312a2fa7e116100fb57806312a2fa7e146101c75780631af716ba146101e557806323b872dd1461020157806342842e0e1461021d57610128565b806301ffc9a71461012d57806306fdde031461015d578063081812fc1461017b578063095ea7b3146101ab575b600080fd5b61014760048036038101906101429190612110565b61039d565b604051610154919061293a565b60405180910390f35b61016561047f565b6040516101729190612955565b60405180910390f35b61019560048036038101906101909190612162565b610511565b6040516101a291906128d3565b60405180910390f35b6101c560048036038101906101c091906120d4565b610596565b005b6101cf6106ae565b6040516101dc919061293a565b60405180910390f35b6101ff60048036038101906101fa9190611fc9565b6106df565b005b61021b60048036038101906102169190611eff565b6106fa565b005b61023760048036038101906102329190611eff565b61075a565b005b610253600480360381019061024e9190612162565b61077a565b60405161026091906128d3565b60405180910390f35b610283600480360381019061027e9190611e9a565b61082c565b6040516102909190612b97565b60405180910390f35b6102a16108e4565b6040516102ae9190612955565b60405180910390f35b6102d160048036038101906102cc9190612044565b610976565b005b6102ed60048036038101906102e89190611f4e565b610af7565b005b61030960048036038101906103049190612162565b610b59565b6040516103169190612955565b60405180910390f35b61033960048036038101906103349190612080565b610cab565b6040516103469190612b97565b60405180910390f35b61036960048036038101906103649190611ec3565b610d2e565b604051610376919061293a565b60405180910390f35b610387610dc2565b6040516103949190612b97565b60405180910390f35b60007f80ac58cd000000000000000000000000000000000000000000000000000000007bffffffffffffffffffffffffffffffffffffffffffffffffffffffff1916827bffffffffffffffffffffffffffffffffffffffffffffffffffffffff1916148061046857507f5b5e139f000000000000000000000000000000000000000000000000000000007bffffffffffffffffffffffffffffffffffffffffffffffffffffffff1916827bffffffffffffffffffffffffffffffffffffffffffffffffffffffff1916145b80610478575061047782610dd8565b5b9050919050565b60606000805461048e90612df7565b80601f01602080910402602001604051908101604052809291908181526020018280546104ba90612df7565b80156105075780601f106104dc57610100808354040283529160200191610507565b820191906000526020600020905b8154815290600101906020018083116104ea57829003601f168201915b5050505050905090565b600061051c82610e42565b61055b576040517f08c379a000000000000000000000000000000000000000000000000000000000815260040161055290612ad7565b60405180910390fd5b6004600083815260200190815260200160002060009054906101000a900473ffffffffffffffffffffffffffffffffffffffff169050919050565b60006105a18261077a565b90508073ffffffffffffffffffffffffffffffffffffffff168373ffffffffffffffffffffffffffffffffffffffff161415610612576040517f08c379a000000000000000000000000000000000000000000000000000000000815260040161060990612b37565b60405180910390fd5b8073ffffffffffffffffffffffffffffffffffffffff16610631610eae565b73ffffffffffffffffffffffffffffffffffffffff161480610660575061065f8161065a610eae565b610d2e565b5b61069f576040517f08c379a000000000000000000000000000000000000000000000000000000000815260040161069690612a17565b60405180910390fd5b6106a98383610eb6565b505050565b600080600854426106bf9190612d0d565b9050620151808110156106d65760019150506106dc565b60009150505b90565b6106e98282610f6f565b6106f48484846106fa565b50505050565b61070b610705610eae565b82610fe3565b61074a576040517f08c379a000000000000000000000000000000000000000000000000000000000815260040161074190612b77565b60405180910390fd5b6107558383836110c1565b505050565b61077583838360405180602001604052806000815250610af7565b505050565b6000806002600084815260200190815260200160002060009054906101000a900473ffffffffffffffffffffffffffffffffffffffff169050600073ffffffffffffffffffffffffffffffffffffffff168173ffffffffffffffffffffffffffffffffffffffff161415610823576040517f08c379a000000000000000000000000000000000000000000000000000000000815260040161081a90612a57565b60405180910390fd5b80915050919050565b60008073ffffffffffffffffffffffffffffffffffffffff168273ffffffffffffffffffffffffffffffffffffffff16141561089d576040517f08c379a000000000000000000000000000000000000000000000000000000000815260040161089490612a37565b60405180910390fd5b600360008373ffffffffffffffffffffffffffffffffffffffff1673ffffffffffffffffffffffffffffffffffffffff168152602001908152602001600020549050919050565b6060600180546108f390612df7565b80601f016020809104026020016040519081016040528092919081815260200182805461091f90612df7565b801561096c5780601f106109415761010080835404028352916020019161096c565b820191906000526020600020905b81548152906001019060200180831161094f57829003601f168201915b5050505050905090565b61097e610eae565b73ffffffffffffffffffffffffffffffffffffffff168273ffffffffffffffffffffffffffffffffffffffff1614156109ec576040517f08c379a00000000000000000000000000000000000000000000000000000000081526004016109e3906129d7565b60405180910390fd5b80600560006109f9610eae565b73ffffffffffffffffffffffffffffffffffffffff1673ffffffffffffffffffffffffffffffffffffffff16815260200190815260200160002060008473ffffffffffffffffffffffffffffffffffffffff1673ffffffffffffffffffffffffffffffffffffffff16815260200190815260200160002060006101000a81548160ff0219169083151502179055508173ffffffffffffffffffffffffffffffffffffffff16610aa6610eae565b73ffffffffffffffffffffffffffffffffffffffff167f17307eab39ab6107e8899845ad3d59bd9653f200f220920489ca2b5937696c3183604051610aeb919061293a565b60405180910390a35050565b610b08610b02610eae565b83610fe3565b610b47576040517f08c379a0000000000000000000000000000000000000000000000000000000008152600401610b3e90612b77565b60405180910390fd5b610b538484848461131d565b50505050565b6060610b6482610e42565b610ba3576040517f08c379a0000000000000000000000000000000000000000000000000000000008152600401610b9a90612ab7565b60405180910390fd5b6000600660008481526020019081526020016000208054610bc390612df7565b80601f0160208091040260200160405190810160405280929190818152602001828054610bef90612df7565b8015610c3c5780601f10610c1157610100808354040283529160200191610c3c565b820191906000526020600020905b815481529060010190602001808311610c1f57829003601f168201915b505050505090506000610c4d611379565b9050600081511415610c63578192505050610ca6565b600082511115610c98578082604051602001610c809291906128af565b60405160208183030381529060405292505050610ca6565b610ca184611390565b925050505b919050565b6000610cb56106ae565b50610cc06007611437565b6000610ccc600761144d565b9050610cd8848261145b565b610ce28184610f6f565b610d006001610cf1600761144d565b610cfb9190612d0d565b610e42565b15610d2457610d236001610d14600761144d565b610d1e9190612d0d565b611629565b5b8091505092915050565b6000600560008473ffffffffffffffffffffffffffffffffffffffff1673ffffffffffffffffffffffffffffffffffffffff16815260200190815260200160002060008373ffffffffffffffffffffffffffffffffffffffff1673ffffffffffffffffffffffffffffffffffffffff16815260200190815260200160002060009054906101000a900460ff16905092915050565b600080610dcf600761144d565b90508091505090565b60007f01ffc9a7000000000000000000000000000000000000000000000000000000007bffffffffffffffffffffffffffffffffffffffffffffffffffffffff1916827bffffffffffffffffffffffffffffffffffffffffffffffffffffffff1916149050919050565b60008073ffffffffffffffffffffffffffffffffffffffff166002600084815260200190815260200160002060009054906101000a900473ffffffffffffffffffffffffffffffffffffffff1673ffffffffffffffffffffffffffffffffffffffff1614159050919050565b600033905090565b816004600083815260200190815260200160002060006101000a81548173ffffffffffffffffffffffffffffffffffffffff021916908373ffffffffffffffffffffffffffffffffffffffff160217905550808273ffffffffffffffffffffffffffffffffffffffff16610f298361077a565b73ffffffffffffffffffffffffffffffffffffffff167f8c5be1e5ebec7d5bd14f71427d1e84f3dd0314c0f7b2291e5b200ac8c7c3b92560405160405180910390a45050565b610f7882610e42565b610fb7576040517f08c379a0000000000000000000000000000000000000000000000000000000008152600401610fae90612a77565b60405180910390fd5b80600660008481526020019081526020016000209080519060200190610fde929190611c7e565b505050565b6000610fee82610e42565b61102d576040517f08c379a0000000000000000000000000000000000000000000000000000000008152600401611024906129f7565b60405180910390fd5b60006110388361077a565b90508073ffffffffffffffffffffffffffffffffffffffff168473ffffffffffffffffffffffffffffffffffffffff1614806110a757508373ffffffffffffffffffffffffffffffffffffffff1661108f84610511565b73ffffffffffffffffffffffffffffffffffffffff16145b806110b857506110b78185610d2e565b5b91505092915050565b8273ffffffffffffffffffffffffffffffffffffffff166110e18261077a565b73ffffffffffffffffffffffffffffffffffffffff1614611137576040517f08c379a000000000000000000000000000000000000000000000000000000000815260040161112e90612af7565b60405180910390fd5b600073ffffffffffffffffffffffffffffffffffffffff168273ffffffffffffffffffffffffffffffffffffffff1614156111a7576040517f08c379a000000000000000000000000000000000000000000000000000000000815260040161119e906129b7565b60405180910390fd5b6111b283838361167c565b6111bd600082610eb6565b6001600360008573ffffffffffffffffffffffffffffffffffffffff1673ffffffffffffffffffffffffffffffffffffffff168152602001908152602001600020600082825461120d9190612d0d565b925050819055506001600360008473ffffffffffffffffffffffffffffffffffffffff1673ffffffffffffffffffffffffffffffffffffffff16815260200190815260200160002060008282546112649190612c86565b92505081905550816002600083815260200190815260200160002060006101000a81548173ffffffffffffffffffffffffffffffffffffffff021916908373ffffffffffffffffffffffffffffffffffffffff160217905550808273ffffffffffffffffffffffffffffffffffffffff168473ffffffffffffffffffffffffffffffffffffffff167fddf252ad1be2c89b69c2b068fc378daa952ba7f163c4a11628f55a4df523b3ef60405160405180910390a4505050565b6113288484846110c1565b6113348484848461174f565b611373576040517f08c379a000000000000000000000000000000000000000000000000000000000815260040161136a90612977565b60405180910390fd5b50505050565b606060405180602001604052806000815250905090565b606061139b82610e42565b6113da576040517f08c379a00000000000000000000000000000000000000000000000000000000081526004016113d190612b17565b60405180910390fd5b60006113e4611379565b90506000815111611404576040518060200160405280600081525061142f565b8061140e8461191e565b60405160200161141f9291906128af565b6040516020818303038152906040525b915050919050565b6001816000016000828254019250508190555050565b600081600001549050919050565b600073ffffffffffffffffffffffffffffffffffffffff168273ffffffffffffffffffffffffffffffffffffffff1614156114cb576040517f08c379a00000000000000000000000000000000000000000000000000000000081526004016114c290612a97565b60405180910390fd5b6114d481610e42565b15611514576040517f08c379a000000000000000000000000000000000000000000000000000000000815260040161150b90612997565b60405180910390fd5b6115206000838361167c565b6001600360008473ffffffffffffffffffffffffffffffffffffffff1673ffffffffffffffffffffffffffffffffffffffff16815260200190815260200160002060008282546115709190612c86565b92505081905550816002600083815260200190815260200160002060006101000a81548173ffffffffffffffffffffffffffffffffffffffff021916908373ffffffffffffffffffffffffffffffffffffffff160217905550808273ffffffffffffffffffffffffffffffffffffffff16600073ffffffffffffffffffffffffffffffffffffffff167fddf252ad1be2c89b69c2b068fc378daa952ba7f163c4a11628f55a4df523b3ef60405160405180910390a45050565b61163281611aea565b600060066000838152602001908152602001600020805461165290612df7565b905014611679576006600082815260200190815260200160002060006116789190611d04565b5b50565b611687838383611bfb565b600015156116958383611c00565b1515146116d7576040517f08c379a00000000000000000000000000000000000000000000000000000000081526004016116ce90612b57565b60405180910390fd5b60016009600083815260200190815260200160002060010160008473ffffffffffffffffffffffffffffffffffffffff1673ffffffffffffffffffffffffffffffffffffffff16815260200190815260200160002060006101000a81548160ff02191690831515021790555042600881905550505050565b60006117708473ffffffffffffffffffffffffffffffffffffffff16611c6b565b15611911578373ffffffffffffffffffffffffffffffffffffffff1663150b7a02611799610eae565b8786866040518563ffffffff167c01000000000000000000000000000000000000000000000000000000000281526004016117d794939291906128ee565b602060405180830381600087803b1580156117f157600080fd5b505af192505050801561182257506040513d601f19601f8201168201806040525081019061181f9190612139565b60015b6118a5573d8060008114611852576040519150601f19603f3d011682016040523d82523d6000602084013e611857565b606091505b5060008151141561189d576040517f08c379a000000000000000000000000000000000000000000000000000000000815260040161189490612977565b60405180910390fd5b805181602001fd5b63150b7a027c0100000000000000000000000000000000000000000000000000000000027bffffffffffffffffffffffffffffffffffffffffffffffffffffffff1916817bffffffffffffffffffffffffffffffffffffffffffffffffffffffff191614915050611916565b600190505b949350505050565b60606000821415611966576040518060400160405280600181526020017f30000000000000000000000000000000000000000000000000000000000000008152509050611ae5565b600082905060005b6000821461199857808061198190612e29565b915050600a826119919190612cdc565b915061196e565b60008167ffffffffffffffff8111156119da577f4e487b7100000000000000000000000000000000000000000000000000000000600052604160045260246000fd5b6040519080825280601f01601f191660200182016040528015611a0c5781602001600182028036833780820191505090505b5090505b60008514611ade57600182611a259190612d0d565b9150600a85611a349190612e72565b6030611a409190612c86565b7f010000000000000000000000000000000000000000000000000000000000000002818381518110611a9b577f4e487b7100000000000000000000000000000000000000000000000000000000600052603260045260246000fd5b60200101907effffffffffffffffffffffffffffffffffffffffffffffffffffffffffffff1916908160001a905350600a85611ad79190612cdc565b9450611a10565b8093505050505b919050565b6000611af58261077a565b9050611b038160008461167c565b611b0e600083610eb6565b6001600360008373ffffffffffffffffffffffffffffffffffffffff1673ffffffffffffffffffffffffffffffffffffffff1681526020019081526020016000206000828254611b5e9190612d0d565b925050819055506002600083815260200190815260200160002060006101000a81549073ffffffffffffffffffffffffffffffffffffffff021916905581600073ffffffffffffffffffffffffffffffffffffffff168273ffffffffffffffffffffffffffffffffffffffff167fddf252ad1be2c89b69c2b068fc378daa952ba7f163c4a11628f55a4df523b3ef60405160405180910390a45050565b505050565b60006009600083815260200190815260200160002060010160008473ffffffffffffffffffffffffffffffffffffffff1673ffffffffffffffffffffffffffffffffffffffff16815260200190815260200160002060009054906101000a900460ff16905092915050565b600080823b905060008111915050919050565b828054611c8a90612df7565b90600052602060002090601f016020900481019282611cac5760008555611cf3565b82601f10611cc557805160ff1916838001178555611cf3565b82800160010185558215611cf3579182015b82811115611cf2578251825591602001919060010190611cd7565b5b509050611d009190611d44565b5090565b508054611d1090612df7565b6000825580601f10611d225750611d41565b601f016020900490600052602060002090810190611d409190611d44565b5b50565b5b80821115611d5d576000816000905550600101611d45565b5090565b6000611d74611d6f84612be3565b612bb2565b905082815260208101848484011115611d8c57600080fd5b611d97848285612db5565b509392505050565b6000611db2611dad84612c13565b612bb2565b905082815260208101848484011115611dca57600080fd5b611dd5848285612db5565b509392505050565b600081359050611dec81612f70565b92915050565b600081359050611e0181612f87565b92915050565b600081359050611e1681612f9e565b92915050565b600081519050611e2b81612f9e565b92915050565b600082601f830112611e4257600080fd5b8135611e52848260208601611d61565b91505092915050565b600082601f830112611e6c57600080fd5b8135611e7c848260208601611d9f565b91505092915050565b600081359050611e9481612fb5565b92915050565b600060208284031215611eac57600080fd5b6000611eba84828501611ddd565b91505092915050565b60008060408385031215611ed657600080fd5b6000611ee485828601611ddd565b9250506020611ef585828601611ddd565b9150509250929050565b600080600060608486031215611f1457600080fd5b6000611f2286828701611ddd565b9350506020611f3386828701611ddd565b9250506040611f4486828701611e85565b9150509250925092565b60008060008060808587031215611f6457600080fd5b6000611f7287828801611ddd565b9450506020611f8387828801611ddd565b9350506040611f9487828801611e85565b925050606085013567ffffffffffffffff811115611fb157600080fd5b611fbd87828801611e31565b91505092959194509250565b60008060008060808587031215611fdf57600080fd5b6000611fed87828801611ddd565b9450506020611ffe87828801611ddd565b935050604061200f87828801611e85565b925050606085013567ffffffffffffffff81111561202c57600080fd5b61203887828801611e5b565b91505092959194509250565b6000806040838503121561205757600080fd5b600061206585828601611ddd565b925050602061207685828601611df2565b9150509250929050565b6000806040838503121561209357600080fd5b60006120a185828601611ddd565b925050602083013567ffffffffffffffff8111156120be57600080fd5b6120ca85828601611e5b565b9150509250929050565b600080604083850312156120e757600080fd5b60006120f585828601611ddd565b925050602061210685828601611e85565b9150509250929050565b60006020828403121561212257600080fd5b600061213084828501611e07565b91505092915050565b60006020828403121561214b57600080fd5b600061215984828501611e1c565b91505092915050565b60006020828403121561217457600080fd5b600061218284828501611e85565b91505092915050565b61219481612d41565b82525050565b6121a381612d53565b82525050565b60006121b482612c43565b6121be8185612c59565b93506121ce818560208601612dc4565b6121d781612f5f565b840191505092915050565b60006121ed82612c4e565b6121f78185612c6a565b9350612207818560208601612dc4565b61221081612f5f565b840191505092915050565b600061222682612c4e565b6122308185612c7b565b9350612240818560208601612dc4565b80840191505092915050565b6000612259603283612c6a565b91507f4552433732313a207472616e7366657220746f206e6f6e20455243373231526560008301527f63656976657220696d706c656d656e74657200000000000000000000000000006020830152604082019050919050565b60006122bf601c83612c6a565b91507f4552433732313a20746f6b656e20616c7265616479206d696e746564000000006000830152602082019050919050565b60006122ff602483612c6a565b91507f4552433732313a207472616e7366657220746f20746865207a65726f2061646460008301527f72657373000000000000000000000000000000000000000000000000000000006020830152604082019050919050565b6000612365601983612c6a565b91507f4552433732313a20617070726f766520746f2063616c6c6572000000000000006000830152602082019050919050565b60006123a5602c83612c6a565b91507f4552433732313a206f70657261746f7220717565727920666f72206e6f6e657860008301527f697374656e7420746f6b656e00000000000000000000000000000000000000006020830152604082019050919050565b600061240b603883612c6a565b91507f4552433732313a20617070726f76652063616c6c6572206973206e6f74206f7760008301527f6e6572206e6f7220617070726f76656420666f7220616c6c00000000000000006020830152604082019050919050565b6000612471602a83612c6a565b91507f4552433732313a2062616c616e636520717565727920666f7220746865207a6560008301527f726f2061646472657373000000000000000000000000000000000000000000006020830152604082019050919050565b60006124d7602983612c6a565b91507f4552433732313a206f776e657220717565727920666f72206e6f6e657869737460008301527f656e7420746f6b656e00000000000000000000000000000000000000000000006020830152604082019050919050565b600061253d602e83612c6a565b91507f45524337323155524953746f726167653a2055524920736574206f66206e6f6e60008301527f6578697374656e7420746f6b656e0000000000000000000000000000000000006020830152604082019050919050565b60006125a3602083612c6a565b91507f4552433732313a206d696e7420746f20746865207a65726f20616464726573736000830152602082019050919050565b60006125e3603183612c6a565b91507f45524337323155524953746f726167653a2055524920717565727920666f722060008301527f6e6f6e6578697374656e7420746f6b656e0000000000000000000000000000006020830152604082019050919050565b6000612649602c83612c6a565b91507f4552433732313a20617070726f76656420717565727920666f72206e6f6e657860008301527f697374656e7420746f6b656e00000000000000000000000000000000000000006020830152604082019050919050565b60006126af602983612c6a565b91507f4552433732313a207472616e73666572206f6620746f6b656e2074686174206960008301527f73206e6f74206f776e00000000000000000000000000000000000000000000006020830152604082019050919050565b6000612715602f83612c6a565b91507f4552433732314d657461646174613a2055524920717565727920666f72206e6f60008301527f6e6578697374656e7420746f6b656e00000000000000000000000000000000006020830152604082019050919050565b600061277b602183612c6a565b91507f4552433732313a20617070726f76616c20746f2063757272656e74206f776e6560008301527f72000000000000000000000000000000000000000000000000000000000000006020830152604082019050919050565b60006127e1602883612c6a565b91507f526563697069656e743a20697320612070617374206f776e6572206f6620746860008301527f697320746f6b656e0000000000000000000000000000000000000000000000006020830152604082019050919050565b6000612847603183612c6a565b91507f4552433732313a207472616e736665722063616c6c6572206973206e6f74206f60008301527f776e6572206e6f7220617070726f7665640000000000000000000000000000006020830152604082019050919050565b6128a981612dab565b82525050565b60006128bb828561221b565b91506128c7828461221b565b91508190509392505050565b60006020820190506128e8600083018461218b565b92915050565b6000608082019050612903600083018761218b565b612910602083018661218b565b61291d60408301856128a0565b818103606083015261292f81846121a9565b905095945050505050565b600060208201905061294f600083018461219a565b92915050565b6000602082019050818103600083015261296f81846121e2565b905092915050565b600060208201905081810360008301526129908161224c565b9050919050565b600060208201905081810360008301526129b0816122b2565b9050919050565b600060208201905081810360008301526129d0816122f2565b9050919050565b600060208201905081810360008301526129f081612358565b9050919050565b60006020820190508181036000830152612a1081612398565b9050919050565b60006020820190508181036000830152612a30816123fe565b9050919050565b60006020820190508181036000830152612a5081612464565b9050919050565b60006020820190508181036000830152612a70816124ca565b9050919050565b60006020820190508181036000830152612a9081612530565b9050919050565b60006020820190508181036000830152612ab081612596565b9050919050565b60006020820190508181036000830152612ad0816125d6565b9050919050565b60006020820190508181036000830152612af08161263c565b9050919050565b60006020820190508181036000830152612b10816126a2565b9050919050565b60006020820190508181036000830152612b3081612708565b9050919050565b60006020820190508181036000830152612b508161276e565b9050919050565b60006020820190508181036000830152612b70816127d4565b9050919050565b60006020820190508181036000830152612b908161283a565b9050919050565b6000602082019050612bac60008301846128a0565b92915050565b6000604051905081810181811067ffffffffffffffff82111715612bd957612bd8612f30565b5b8060405250919050565b600067ffffffffffffffff821115612bfe57612bfd612f30565b5b601f19601f8301169050602081019050919050565b600067ffffffffffffffff821115612c2e57612c2d612f30565b5b601f19601f8301169050602081019050919050565b600081519050919050565b600081519050919050565b600082825260208201905092915050565b600082825260208201905092915050565b600081905092915050565b6000612c9182612dab565b9150612c9c83612dab565b9250827fffffffffffffffffffffffffffffffffffffffffffffffffffffffffffffffff03821115612cd157612cd0612ea3565b5b828201905092915050565b6000612ce782612dab565b9150612cf283612dab565b925082612d0257612d01612ed2565b5b828204905092915050565b6000612d1882612dab565b9150612d2383612dab565b925082821015612d3657612d35612ea3565b5b828203905092915050565b6000612d4c82612d8b565b9050919050565b60008115159050919050565b60007fffffffff0000000000000000000000000000000000000000000000000000000082169050919050565b600073ffffffffffffffffffffffffffffffffffffffff82169050919050565b6000819050919050565b82818337600083830152505050565b60005b83811015612de2578082015181840152602081019050612dc7565b83811115612df1576000848401525b50505050565b60006002820490506001821680612e0f57607f821691505b60208210811415612e2357612e22612f01565b5b50919050565b6000612e3482612dab565b91507fffffffffffffffffffffffffffffffffffffffffffffffffffffffffffffffff821415612e6757612e66612ea3565b5b600182019050919050565b6000612e7d82612dab565b9150612e8883612dab565b925082612e9857612e97612ed2565b5b828206905092915050565b7f4e487b7100000000000000000000000000000000000000000000000000000000600052601160045260246000fd5b7f4e487b7100000000000000000000000000000000000000000000000000000000600052601260045260246000fd5b7f4e487b7100000000000000000000000000000000000000000000000000000000600052602260045260246000fd5b7f4e487b7100000000000000000000000000000000000000000000000000000000600052604160045260246000fd5b6000601f19601f8301169050919050565b612f7981612d41565b8114612f8457600080fd5b50565b612f9081612d53565b8114612f9b57600080fd5b50565b612fa781612d5f565b8114612fb257600080fd5b50565b612fbe81612dab565b8114612fc957600080fd5b5056fea26469706673582212206d98b9de850c38527a16c4d8ed419fe30088d4ed052e4702b84b07fdd32e5c7564736f6c63430008000033",
  "immutableReferences": {},
  "source": "// contracts/BlessedCoinContracts.sol\n// SPDX-License-Identifier: MIT\npragma solidity ^0.8.0;\n\nimport \"@openzeppelin/contracts/token/ERC721/ERC721.sol\";\nimport \"@openzeppelin/contracts/token/ERC721/extensions/ERC721URIStorage.sol\";\nimport \"@openzeppelin/contracts/utils/Counters.sol\";\n\ncontract BlessedCoinContract is ERC721URIStorage {\n    using Counters for Counters.Counter;\n    Counters.Counter private _tokenIds;\n\n\n\n    constructor() ERC721(\"BlessedCoin\", \"BLESSED\") {}\n    \n    uint256 lastTransaction = 0;\n\n    struct TokenOwners {\n        address token;\n        mapping(address => bool) owners; \n    }\n\n    mapping (uint256 => TokenOwners) pastOwners;\n\n    function isPastOwner(address to, uint256 tokenId) internal view returns (bool) {\n        return pastOwners[tokenId].owners[to];\n    }\n    \n    function getLatestID() external view returns (uint256) {\n        uint256 current = _tokenIds.current();\n        return current;\n    }\n\n    function transferFrom(address from,address to,uint256 tokenId ,string memory newURI) external virtual {\n        _setTokenURI(tokenId, newURI);\n        super.transferFrom(from,to,tokenId);\n\n    }\n\n    function _beforeTokenTransfer(address from, address to, uint256 tokenId) \n        internal virtual override \n    {\n        super._beforeTokenTransfer(from, to, tokenId);\n        require(isPastOwner(to, tokenId) == false, \"Recipient: is a past owner of this token\");\n        pastOwners[tokenId].owners[to] = true;\n        lastTransaction = block.timestamp;\n    }\n\n    function validateLastTransaction() public view returns (bool){\n        uint256 timestamp = block.timestamp - lastTransaction;\n        \n        if(timestamp < 86400) {\n            return true;\n        } else {\n            return false;\n        }\n    }\n\n\n    function awardItem(address recipient, string memory metadataURI)\n        public\n        returns (uint256)\n    {\n        validateLastTransaction();\n        _tokenIds.increment();\n        \n        uint256 newItemId = _tokenIds.current();\n        _mint(recipient, newItemId);\n        _setTokenURI(newItemId, metadataURI);\n        if(_exists(_tokenIds.current() - 1)) {\n            _burn(_tokenIds.current() - 1);\n        }\n\n        return newItemId;\n    }\n}",
  "sourcePath": "/Users/shaunnorton/dev/courses/BEW2.4/blessed-coin/contracts/BlessedCoinContract.sol",
  "compiler": {
    "name": "solc",
    "version": "0.8.0+commit.c7dfd78e.Linux.g++"
  },
  "schemaVersion": "3.4.1",
  "updatedAt": "2021-07-15T17:44:45.604Z",
  "networkType": "ethereum",
  "devdoc": {
    "kind": "dev",
    "methods": {
      "approve(address,uint256)": {
        "details": "See {IERC721-approve}."
      },
      "balanceOf(address)": {
        "details": "See {IERC721-balanceOf}."
      },
      "getApproved(uint256)": {
        "details": "See {IERC721-getApproved}."
      },
      "isApprovedForAll(address,address)": {
        "details": "See {IERC721-isApprovedForAll}."
      },
      "name()": {
        "details": "See {IERC721Metadata-name}."
      },
      "ownerOf(uint256)": {
        "details": "See {IERC721-ownerOf}."
      },
      "safeTransferFrom(address,address,uint256)": {
        "details": "See {IERC721-safeTransferFrom}."
      },
      "safeTransferFrom(address,address,uint256,bytes)": {
        "details": "See {IERC721-safeTransferFrom}."
      },
      "setApprovalForAll(address,bool)": {
        "details": "See {IERC721-setApprovalForAll}."
      },
      "supportsInterface(bytes4)": {
        "details": "See {IERC165-supportsInterface}."
      },
      "symbol()": {
        "details": "See {IERC721Metadata-symbol}."
      },
      "tokenURI(uint256)": {
        "details": "See {IERC721Metadata-tokenURI}."
      },
      "transferFrom(address,address,uint256)": {
        "details": "See {IERC721-transferFrom}."
      }
    },
    "version": 1
  },
  "userdoc": {
    "kind": "user",
    "methods": {},
    "version": 1
  }
}